{
  "contractName": "KibiwooHelperProducts",
  "abi": [
    {
      "constant": true,
      "inputs": [
        {
          "name": "",
          "type": "address"
        }
      ],
      "name": "storeProductCount",
      "outputs": [
        {
          "name": "",
          "type": "uint256"
        }
      ],
      "payable": false,
      "stateMutability": "view",
      "type": "function",
      "signature": "0x13149d63"
    },
    {
      "constant": false,
      "inputs": [
        {
          "name": "_productId",
          "type": "uint256"
        },
        {
          "name": "_name",
          "type": "string"
        },
        {
          "name": "_sku",
          "type": "uint256"
        }
      ],
      "name": "addComplement",
      "outputs": [],
      "payable": false,
      "stateMutability": "nonpayable",
      "type": "function",
      "signature": "0x1a5d0e7d"
    },
    {
      "constant": true,
      "inputs": [
        {
          "name": "",
          "type": "uint256"
        }
      ],
      "name": "complementToProduct",
      "outputs": [
        {
          "name": "",
          "type": "uint256"
        }
      ],
      "payable": false,
      "stateMutability": "view",
      "type": "function",
      "signature": "0x6824506e"
    },
    {
      "constant": false,
      "inputs": [],
      "name": "renounceOwnership",
      "outputs": [],
      "payable": false,
      "stateMutability": "nonpayable",
      "type": "function",
      "signature": "0x715018a6"
    },
    {
      "constant": true,
      "inputs": [
        {
          "name": "",
          "type": "uint256"
        }
      ],
      "name": "products",
      "outputs": [
        {
          "name": "name",
          "type": "string"
        },
        {
          "name": "sku",
          "type": "uint256"
        },
        {
          "name": "isComplement",
          "type": "bool"
        },
        {
          "name": "category",
          "type": "uint8"
        }
      ],
      "payable": false,
      "stateMutability": "view",
      "type": "function",
      "signature": "0x7acc0b20"
    },
    {
      "constant": true,
      "inputs": [
        {
          "name": "",
          "type": "uint256"
        }
      ],
      "name": "productComplementCount",
      "outputs": [
        {
          "name": "",
          "type": "uint256"
        }
      ],
      "payable": false,
      "stateMutability": "view",
      "type": "function",
      "signature": "0x7cecc587"
    },
    {
      "constant": true,
      "inputs": [],
      "name": "owner",
      "outputs": [
        {
          "name": "",
          "type": "address"
        }
      ],
      "payable": false,
      "stateMutability": "view",
      "type": "function",
      "signature": "0x8da5cb5b"
    },
    {
      "constant": true,
      "inputs": [],
      "name": "isOwner",
      "outputs": [
        {
          "name": "",
          "type": "bool"
        }
      ],
      "payable": false,
      "stateMutability": "view",
      "type": "function",
      "signature": "0x8f32d59b"
    },
    {
      "constant": true,
      "inputs": [
        {
          "name": "",
          "type": "uint256"
        }
      ],
      "name": "productToStore",
      "outputs": [
        {
          "name": "",
          "type": "address"
        }
      ],
      "payable": false,
      "stateMutability": "view",
      "type": "function",
      "signature": "0xb32f7b8b"
    },
    {
      "constant": false,
      "inputs": [
        {
          "name": "newOwner",
          "type": "address"
        }
      ],
      "name": "transferOwnership",
      "outputs": [],
      "payable": false,
      "stateMutability": "nonpayable",
      "type": "function",
      "signature": "0xf2fde38b"
    },
    {
      "constant": false,
      "inputs": [
        {
          "name": "_name",
          "type": "string"
        },
        {
          "name": "_category",
          "type": "uint8"
        }
      ],
      "name": "createNewProduct",
      "outputs": [],
      "payable": false,
      "stateMutability": "nonpayable",
      "type": "function",
      "signature": "0xfae4e1fc"
    },
    {
      "anonymous": false,
      "inputs": [
        {
          "indexed": false,
          "name": "complementId",
          "type": "uint256"
        },
        {
          "indexed": false,
          "name": "productId",
          "type": "uint256"
        },
        {
          "indexed": false,
          "name": "name",
          "type": "string"
        },
        {
          "indexed": false,
          "name": "sku",
          "type": "uint256"
        }
      ],
      "name": "NewComplement",
      "type": "event",
      "signature": "0x488a6f9649a3f053251074e5b8850b5d9bfbe4c57296e8a91fd573972528fce4"
    },
    {
      "anonymous": false,
      "inputs": [
        {
          "indexed": false,
          "name": "id",
          "type": "uint256"
        },
        {
          "indexed": false,
          "name": "name",
          "type": "string"
        },
        {
          "indexed": false,
          "name": "sku",
          "type": "uint256"
        },
        {
          "indexed": false,
          "name": "category",
          "type": "uint8"
        }
      ],
      "name": "NewProduct",
      "type": "event",
      "signature": "0x436a659faa1fb9e5e1200c39a7bbd18817744c3c67acc8769dd528b9399b4e0d"
    },
    {
      "anonymous": false,
      "inputs": [
        {
          "indexed": true,
          "name": "previousOwner",
          "type": "address"
        },
        {
          "indexed": true,
          "name": "newOwner",
          "type": "address"
        }
      ],
      "name": "OwnershipTransferred",
      "type": "event",
      "signature": "0x8be0079c531659141344cd1fd0a4f28419497f9722a3daafe3b4186f6b6457e0"
    },
    {
      "constant": false,
      "inputs": [],
      "name": "withdraw",
      "outputs": [],
      "payable": false,
      "stateMutability": "nonpayable",
      "type": "function",
      "signature": "0x3ccfd60b"
    },
    {
      "constant": true,
      "inputs": [
        {
          "name": "_owner",
          "type": "address"
        }
      ],
      "name": "getProductsByShop",
      "outputs": [
        {
          "name": "",
          "type": "uint256[]"
        }
      ],
      "payable": false,
      "stateMutability": "view",
      "type": "function",
      "signature": "0xb015329c"
    }
  ],
  "bytecode": "0x60806040526024600155600154600a0a600255336000806101000a81548173ffffffffffffffffffffffffffffffffffffffff021916908373ffffffffffffffffffffffffffffffffffffffff1602179055506000809054906101000a900473ffffffffffffffffffffffffffffffffffffffff1673ffffffffffffffffffffffffffffffffffffffff16600073ffffffffffffffffffffffffffffffffffffffff167f8be0079c531659141344cd1fd0a4f28419497f9722a3daafe3b4186f6b6457e060405160405180910390a3611129806100dd6000396000f3fe608060405234801561001057600080fd5b50600436106100ec576000357c0100000000000000000000000000000000000000000000000000000000900480637cecc587116100a9578063b015329c11610083578063b015329c146103ea578063b32f7b8b14610483578063f2fde38b146104f1578063fae4e1fc14610535576100ec565b80637cecc5871461033c5780638da5cb5b1461037e5780638f32d59b146103c8576100ec565b806313149d63146100f15780631a5d0e7d146101495780633ccfd60b146102185780636824506e14610222578063715018a6146102645780637acc0b201461026e575b600080fd5b6101336004803603602081101561010757600080fd5b81019080803573ffffffffffffffffffffffffffffffffffffffff1690602001909291905050506105fd565b6040518082815260200191505060405180910390f35b6102166004803603606081101561015f57600080fd5b81019080803590602001909291908035906020019064010000000081111561018657600080fd5b82018360208201111561019857600080fd5b803590602001918460018302840111640100000000831117156101ba57600080fd5b91908080601f016020809104026020016040519081016040528093929190818152602001838380828437600081840152601f19601f82011690508083019250505050505050919291929080359060200190929190505050610615565b005b6102206107ca565b005b61024e6004803603602081101561023857600080fd5b810190808035906020019092919050505061084a565b6040518082815260200191505060405180910390f35b61026c610862565b005b61029a6004803603602081101561028457600080fd5b8101908080359060200190929190505050610934565b6040518080602001858152602001841515151581526020018360028111156102be57fe5b60ff168152602001828103825286818151815260200191508051906020019080838360005b838110156102fe5780820151818401526020810190506102e3565b50505050905090810190601f16801561032b5780820380516001836020036101000a031916815260200191505b509550505050505060405180910390f35b6103686004803603602081101561035257600080fd5b8101908080359060200190929190505050610a25565b6040518082815260200191505060405180910390f35b610386610a3d565b604051808273ffffffffffffffffffffffffffffffffffffffff1673ffffffffffffffffffffffffffffffffffffffff16815260200191505060405180910390f35b6103d0610a66565b604051808215151515815260200191505060405180910390f35b61042c6004803603602081101561040057600080fd5b81019080803573ffffffffffffffffffffffffffffffffffffffff169060200190929190505050610abd565b6040518080602001828103825283818151815260200191508051906020019060200280838360005b8381101561046f578082015181840152602081019050610454565b505050509050019250505060405180910390f35b6104af6004803603602081101561049957600080fd5b8101908080359060200190929190505050610bee565b604051808273ffffffffffffffffffffffffffffffffffffffff1673ffffffffffffffffffffffffffffffffffffffff16815260200191505060405180910390f35b6105336004803603602081101561050757600080fd5b81019080803573ffffffffffffffffffffffffffffffffffffffff169060200190929190505050610c21565b005b6105fb6004803603604081101561054b57600080fd5b810190808035906020019064010000000081111561056857600080fd5b82018360208201111561057a57600080fd5b8035906020019184600183028401116401000000008311171561059c57600080fd5b91908080601f016020809104026020016040519081016040528093929190818152602001838380828437600081840152601f19601f820116905080830192505050505050509192919290803560ff169060200190929190505050610c40565b005b60056020528060005260406000206000915090505481565b826004600082815260200190815260200160002060009054906101000a900473ffffffffffffffffffffffffffffffffffffffff1673ffffffffffffffffffffffffffffffffffffffff163373ffffffffffffffffffffffffffffffffffffffff1614151561068357600080fd5b600061068e84610c60565b905060006106cc8583600160038a8154811015156106a857fe5b906000526020600020906003020160020160019054906101000a900460ff16610cf3565b905085600660008381526020019081526020016000208190555061070d60016007600089815260200190815260200160002054610f3d90919063ffffffff16565b507f488a6f9649a3f053251074e5b8850b5d9bfbe4c57296e8a91fd573972528fce4818787876040518085815260200184815260200180602001838152602001828103825284818151815260200191508051906020019080838360005b8381101561078557808201518184015260208101905061076a565b50505050905090810190601f1680156107b25780820380516001836020036101000a031916815260200191505b509550505050505060405180910390a1505050505050565b6107d2610a66565b15156107dd57600080fd5b60006107e7610a3d565b90508073ffffffffffffffffffffffffffffffffffffffff166108fc3073ffffffffffffffffffffffffffffffffffffffff16319081150290604051600060405180830381858888f19350505050158015610846573d6000803e3d6000fd5b5050565b60066020528060005260406000206000915090505481565b61086a610a66565b151561087557600080fd5b600073ffffffffffffffffffffffffffffffffffffffff166000809054906101000a900473ffffffffffffffffffffffffffffffffffffffff1673ffffffffffffffffffffffffffffffffffffffff167f8be0079c531659141344cd1fd0a4f28419497f9722a3daafe3b4186f6b6457e060405160405180910390a360008060006101000a81548173ffffffffffffffffffffffffffffffffffffffff021916908373ffffffffffffffffffffffffffffffffffffffff160217905550565b60038181548110151561094357fe5b9060005260206000209060030201600091509050806000018054600181600116156101000203166002900480601f0160208091040260200160405190810160405280929190818152602001828054600181600116156101000203166002900480156109ef5780601f106109c4576101008083540402835291602001916109ef565b820191906000526020600020905b8154815290600101906020018083116109d257829003601f168201915b5050505050908060010154908060020160009054906101000a900460ff16908060020160019054906101000a900460ff16905084565b60076020528060005260406000206000915090505481565b60008060009054906101000a900473ffffffffffffffffffffffffffffffffffffffff16905090565b60008060009054906101000a900473ffffffffffffffffffffffffffffffffffffffff1673ffffffffffffffffffffffffffffffffffffffff163373ffffffffffffffffffffffffffffffffffffffff1614905090565b606080600560008473ffffffffffffffffffffffffffffffffffffffff1673ffffffffffffffffffffffffffffffffffffffff16815260200190815260200160002054604051908082528060200260200182016040528015610b2e5781602001602082028038833980820191505090505b509050600080905060008090505b600380549050811015610be3578473ffffffffffffffffffffffffffffffffffffffff166004600083815260200190815260200160002060009054906101000a900473ffffffffffffffffffffffffffffffffffffffff1673ffffffffffffffffffffffffffffffffffffffff161415610bd657808383815181101515610bbf57fe5b906020019060200201818152505081806001019250505b8080600101915050610b3c565b508192505050919050565b60046020528060005260406000206000915054906101000a900473ffffffffffffffffffffffffffffffffffffffff1681565b610c29610a66565b1515610c3457600080fd5b610c3d81610f5e565b50565b6000610c4b83610c60565b9050610c5a8382600085610cf3565b50505050565b600080826040516020018082805190602001908083835b602083101515610c9c5780518252602082019150602081019050602083039250610c77565b6001836020036101000a0380198251168184511680821785525050505050509050019150506040516020818303038152906040528051906020012060019004905060025481811515610cea57fe5b06915050919050565b600080600160036080604051908101604052808981526020018881526020018715158152602001866002811115610d2657fe5b815250908060018154018082558091505090600182039060005260206000209060030201600090919290919091506000820151816000019080519060200190610d70929190611058565b506020820151816001015560408201518160020160006101000a81548160ff02191690831515021790555060608201518160020160016101000a81548160ff02191690836002811115610dbf57fe5b02179055505050039050336004600083815260200190815260200160002060006101000a81548173ffffffffffffffffffffffffffffffffffffffff021916908373ffffffffffffffffffffffffffffffffffffffff160217905550610e6e6001600560003373ffffffffffffffffffffffffffffffffffffffff1673ffffffffffffffffffffffffffffffffffffffff16815260200190815260200160002054610f3d90919063ffffffff16565b507f436a659faa1fb9e5e1200c39a7bbd18817744c3c67acc8769dd528b9399b4e0d818787866040518085815260200180602001848152602001836002811115610eb457fe5b60ff168152602001828103825285818151815260200191508051906020019080838360005b83811015610ef4578082015181840152602081019050610ed9565b50505050905090810190601f168015610f215780820380516001836020036101000a031916815260200191505b509550505050505060405180910390a180915050949350505050565b6000808284019050838110151515610f5457600080fd5b8091505092915050565b600073ffffffffffffffffffffffffffffffffffffffff168173ffffffffffffffffffffffffffffffffffffffff1614151515610f9a57600080fd5b8073ffffffffffffffffffffffffffffffffffffffff166000809054906101000a900473ffffffffffffffffffffffffffffffffffffffff1673ffffffffffffffffffffffffffffffffffffffff167f8be0079c531659141344cd1fd0a4f28419497f9722a3daafe3b4186f6b6457e060405160405180910390a3806000806101000a81548173ffffffffffffffffffffffffffffffffffffffff021916908373ffffffffffffffffffffffffffffffffffffffff16021790555050565b828054600181600116156101000203166002900490600052602060002090601f016020900481019282601f1061109957805160ff19168380011785556110c7565b828001600101855582156110c7579182015b828111156110c65782518255916020019190600101906110ab565b5b5090506110d491906110d8565b5090565b6110fa91905b808211156110f65760008160009055506001016110de565b5090565b9056fea165627a7a72305820beac9e561143dc576acffbef1d142c9068d10007a74cb585c8cfe28eb363431b0029",
  "source": "pragma solidity ^0.5.0;\n\nimport \"./kibiwoomanageproducts.sol\";\n\n/// @title A contract that implements some functions for helping Kibiwoo's managing of products\n/// @author Álvaro Gericke\ncontract KibiwooHelperProducts is KibiwooManageProducts {\n\n\t/// @notice Withdraws all the balance in the contract back to owner of the contract\n\tfunction withdraw() external onlyOwner {\n\t\taddress payable _owner = address(uint160(owner()));\n\t\t_owner.transfer(address(this).balance);\n\t}\n\n\t/// @notice Returns all the products with its complements that are owned by a specific shop.\n    /// @param _owner Address of the shop to retrieve the products from it.\n    /// @return An array with all the IDs of the products and their complements owned by that shop\n\tfunction getProductsByShop (address _owner) external view returns (uint[] memory) {\n\n\t\tuint[] memory productsResult = new uint[](storeProductCount[_owner]);\n\t\t// IterAte over all the products and build an array of products\n\t\tuint counter = 0;\n\t\tfor (uint i = 0; i < products.length; i++) {\n\t\t\tif (productToStore[i] == _owner) {\n\t\t\t\tproductsResult[counter] = i;\n\t\t\t\tcounter++;\n\t\t\t}\n\t\t}\n\t\treturn productsResult;\n\t}\n}",
  "sourcePath": "/home/agericke/Documentos/kibiwoo_blockchain/contracts/kibiwoohelperproducts.sol",
  "compiler": {
    "name": "solc",
    "version": "0.5.2+commit.1df8f40c.Emscripten.clang"
  },
  "schemaVersion": "3.0.6",
  "updatedAt": "2019-04-10T01:43:44.915Z",
  "devdoc": {
    "author": "Álvaro Gericke",
    "methods": {
      "addComplement(uint256,string,uint256)": {
        "details": "If no name is assigned, it will be assigned an empty string.",
        "params": {
          "_name": "String identifying the  name of the complement.",
          "_productId": "The unique identifier of the product to which a complement will be added.",
          "_sku": "The 36 digits identifier of the complement to be created."
        }
      },
      "getProductsByShop(address)": {
        "params": {
          "_owner": "Address of the shop to retrieve the products from it."
        },
        "return": "An array with all the IDs of the products and their complements owned by that shop"
      },
      "isOwner()": {
        "return": "true if `msg.sender` is the owner of the contract."
      },
      "owner()": {
        "return": "the address of the owner."
      },
      "renounceOwnership()": {
        "details": "Allows the current owner to relinquish control of the contract. It will not be possible to call the functions with the `onlyOwner` modifier anymore."
      },
      "transferOwnership(address)": {
        "details": "Allows the current owner to transfer control of the contract to a newOwner.",
        "params": {
          "newOwner": "The address to transfer ownership to."
        }
      }
    },
    "title": "A contract that implements some functions for helping Kibiwoo's managing of products"
  },
  "userdoc": {
    "methods": {
      "addComplement(uint256,string,uint256)": {
        "notice": "Adds a new complement to the actual product."
      },
      "getProductsByShop(address)": {
        "notice": "Returns all the products with its complements that are owned by a specific shop."
      },
      "renounceOwnership()": {
        "notice": "Renouncing ownership will leave the contract without an owner, thereby removing any functionality that is only available to the owner."
      },
      "withdraw()": {
        "notice": "Withdraws all the balance in the contract back to owner of the contract"
      }
    }
  }
}