{
  "contractName": "KibiwooManageProducts",
  "abi": [
    {
      "constant": true,
      "inputs": [
        {
          "name": "",
          "type": "address"
        }
      ],
      "name": "storeProductCount",
      "outputs": [
        {
          "name": "",
          "type": "uint256"
        }
      ],
      "payable": false,
      "stateMutability": "view",
      "type": "function"
    },
    {
      "constant": true,
      "inputs": [
        {
          "name": "",
          "type": "uint256"
        }
      ],
      "name": "complementToProduct",
      "outputs": [
        {
          "name": "",
          "type": "uint256"
        }
      ],
      "payable": false,
      "stateMutability": "view",
      "type": "function"
    },
    {
      "constant": false,
      "inputs": [],
      "name": "renounceOwnership",
      "outputs": [],
      "payable": false,
      "stateMutability": "nonpayable",
      "type": "function"
    },
    {
      "constant": true,
      "inputs": [
        {
          "name": "",
          "type": "uint256"
        }
      ],
      "name": "products",
      "outputs": [
        {
          "name": "name",
          "type": "string"
        },
        {
          "name": "sku",
          "type": "uint256"
        },
        {
          "name": "isComplement",
          "type": "bool"
        },
        {
          "name": "category",
          "type": "uint256"
        }
      ],
      "payable": false,
      "stateMutability": "view",
      "type": "function"
    },
    {
      "constant": true,
      "inputs": [
        {
          "name": "",
          "type": "uint256"
        }
      ],
      "name": "productComplementCount",
      "outputs": [
        {
          "name": "",
          "type": "uint256"
        }
      ],
      "payable": false,
      "stateMutability": "view",
      "type": "function"
    },
    {
      "constant": true,
      "inputs": [],
      "name": "owner",
      "outputs": [
        {
          "name": "",
          "type": "address"
        }
      ],
      "payable": false,
      "stateMutability": "view",
      "type": "function"
    },
    {
      "constant": true,
      "inputs": [],
      "name": "isOwner",
      "outputs": [
        {
          "name": "",
          "type": "bool"
        }
      ],
      "payable": false,
      "stateMutability": "view",
      "type": "function"
    },
    {
      "constant": true,
      "inputs": [
        {
          "name": "",
          "type": "uint256"
        }
      ],
      "name": "productToStore",
      "outputs": [
        {
          "name": "",
          "type": "address"
        }
      ],
      "payable": false,
      "stateMutability": "view",
      "type": "function"
    },
    {
      "constant": false,
      "inputs": [
        {
          "name": "_name",
          "type": "string"
        },
        {
          "name": "_category",
          "type": "uint256"
        }
      ],
      "name": "createNewProduct",
      "outputs": [
        {
          "name": "",
          "type": "uint256"
        }
      ],
      "payable": false,
      "stateMutability": "nonpayable",
      "type": "function"
    },
    {
      "constant": false,
      "inputs": [
        {
          "name": "newOwner",
          "type": "address"
        }
      ],
      "name": "transferOwnership",
      "outputs": [],
      "payable": false,
      "stateMutability": "nonpayable",
      "type": "function"
    },
    {
      "anonymous": false,
      "inputs": [
        {
          "indexed": false,
          "name": "complementId",
          "type": "uint256"
        },
        {
          "indexed": false,
          "name": "productId",
          "type": "uint256"
        },
        {
          "indexed": false,
          "name": "name",
          "type": "string"
        },
        {
          "indexed": false,
          "name": "sku",
          "type": "uint256"
        }
      ],
      "name": "NewComplement",
      "type": "event"
    },
    {
      "anonymous": false,
      "inputs": [
        {
          "indexed": false,
          "name": "id",
          "type": "uint256"
        },
        {
          "indexed": false,
          "name": "name",
          "type": "string"
        },
        {
          "indexed": false,
          "name": "sku",
          "type": "uint256"
        },
        {
          "indexed": false,
          "name": "category",
          "type": "uint256"
        }
      ],
      "name": "NewProduct",
      "type": "event"
    },
    {
      "anonymous": false,
      "inputs": [
        {
          "indexed": true,
          "name": "previousOwner",
          "type": "address"
        },
        {
          "indexed": true,
          "name": "newOwner",
          "type": "address"
        }
      ],
      "name": "OwnershipTransferred",
      "type": "event"
    },
    {
      "constant": false,
      "inputs": [
        {
          "name": "_productId",
          "type": "uint256"
        },
        {
          "name": "_name",
          "type": "string"
        },
        {
          "name": "_sku",
          "type": "uint256"
        }
      ],
      "name": "addComplement",
      "outputs": [],
      "payable": false,
      "stateMutability": "nonpayable",
      "type": "function"
    }
  ],
  "bytecode": "0x60806040526024600155600154600a0a600255336000806101000a81548173ffffffffffffffffffffffffffffffffffffffff021916908373ffffffffffffffffffffffffffffffffffffffff1602179055506000809054906101000a900473ffffffffffffffffffffffffffffffffffffffff1673ffffffffffffffffffffffffffffffffffffffff16600073ffffffffffffffffffffffffffffffffffffffff167f8be0079c531659141344cd1fd0a4f28419497f9722a3daafe3b4186f6b6457e060405160405180910390a3610e58806100dd6000396000f3fe608060405234801561001057600080fd5b50600436106100c6576000357c0100000000000000000000000000000000000000000000000000000000900480637cecc5871161008e5780637cecc587146102fe5780638da5cb5b146103405780638f32d59b1461038a578063b32f7b8b146103ac578063b8fe443d1461041a578063f2fde38b146104f3576100c6565b806313149d63146100cb5780631a5d0e7d146101235780636824506e146101f2578063715018a6146102345780637acc0b201461023e575b600080fd5b61010d600480360360208110156100e157600080fd5b81019080803573ffffffffffffffffffffffffffffffffffffffff169060200190929190505050610537565b6040518082815260200191505060405180910390f35b6101f06004803603606081101561013957600080fd5b81019080803590602001909291908035906020019064010000000081111561016057600080fd5b82018360208201111561017257600080fd5b8035906020019184600183028401116401000000008311171561019457600080fd5b91908080601f016020809104026020016040519081016040528093929190818152602001838380828437600081840152601f19601f8201169050808301925050505050505091929192908035906020019092919050505061054f565b005b61021e6004803603602081101561020857600080fd5b81019080803590602001909291905050506106f1565b6040518082815260200191505060405180910390f35b61023c610709565b005b61026a6004803603602081101561025457600080fd5b81019080803590602001909291905050506107db565b604051808060200185815260200184151515158152602001838152602001828103825286818151815260200191508051906020019080838360005b838110156102c05780820151818401526020810190506102a5565b50505050905090810190601f1680156102ed5780820380516001836020036101000a031916815260200191505b509550505050505060405180910390f35b61032a6004803603602081101561031457600080fd5b81019080803590602001909291905050506108bf565b6040518082815260200191505060405180910390f35b6103486108d7565b604051808273ffffffffffffffffffffffffffffffffffffffff1673ffffffffffffffffffffffffffffffffffffffff16815260200191505060405180910390f35b610392610900565b604051808215151515815260200191505060405180910390f35b6103d8600480360360208110156103c257600080fd5b8101908080359060200190929190505050610957565b604051808273ffffffffffffffffffffffffffffffffffffffff1673ffffffffffffffffffffffffffffffffffffffff16815260200191505060405180910390f35b6104dd6004803603604081101561043057600080fd5b810190808035906020019064010000000081111561044d57600080fd5b82018360208201111561045f57600080fd5b8035906020019184600183028401116401000000008311171561048157600080fd5b91908080601f016020809104026020016040519081016040528093929190818152602001838380828437600081840152601f19601f8201169050808301925050505050505091929192908035906020019092919050505061098a565b6040518082815260200191505060405180910390f35b6105356004803603602081101561050957600080fd5b81019080803573ffffffffffffffffffffffffffffffffffffffff1690602001909291905050506109b4565b005b60056020528060005260406000206000915090505481565b826004600082815260200190815260200160002060009054906101000a900473ffffffffffffffffffffffffffffffffffffffff1673ffffffffffffffffffffffffffffffffffffffff163373ffffffffffffffffffffffffffffffffffffffff161415156105bd57600080fd5b60006105c8846109d3565b905060006105f98583600160038a8154811015156105e257fe5b906000526020600020906004020160030154610a66565b9050856006600083815260200190815260200160002081905550600160076000888152602001908152602001600020600082825401925050819055507f488a6f9649a3f053251074e5b8850b5d9bfbe4c57296e8a91fd573972528fce4818787876040518085815260200184815260200180602001838152602001828103825284818151815260200191508051906020019080838360005b838110156106ac578082015181840152602081019050610691565b50505050905090810190601f1680156106d95780820380516001836020036101000a031916815260200191505b509550505050505060405180910390a1505050505050565b60066020528060005260406000206000915090505481565b610711610900565b151561071c57600080fd5b600073ffffffffffffffffffffffffffffffffffffffff166000809054906101000a900473ffffffffffffffffffffffffffffffffffffffff1673ffffffffffffffffffffffffffffffffffffffff167f8be0079c531659141344cd1fd0a4f28419497f9722a3daafe3b4186f6b6457e060405160405180910390a360008060006101000a81548173ffffffffffffffffffffffffffffffffffffffff021916908373ffffffffffffffffffffffffffffffffffffffff160217905550565b6003818154811015156107ea57fe5b9060005260206000209060040201600091509050806000018054600181600116156101000203166002900480601f0160208091040260200160405190810160405280929190818152602001828054600181600116156101000203166002900480156108965780601f1061086b57610100808354040283529160200191610896565b820191906000526020600020905b81548152906001019060200180831161087957829003601f168201915b5050505050908060010154908060020160009054906101000a900460ff16908060030154905084565b60076020528060005260406000206000915090505481565b60008060009054906101000a900473ffffffffffffffffffffffffffffffffffffffff16905090565b60008060009054906101000a900473ffffffffffffffffffffffffffffffffffffffff1673ffffffffffffffffffffffffffffffffffffffff163373ffffffffffffffffffffffffffffffffffffffff1614905090565b60046020528060005260406000206000915054906101000a900473ffffffffffffffffffffffffffffffffffffffff1681565b600080610996846109d3565b905060006109a78583600087610a66565b9050809250505092915050565b6109bc610900565b15156109c757600080fd5b6109d081610c8d565b50565b600080826040516020018082805190602001908083835b602083101515610a0f57805182526020820191506020810190506020830392506109ea565b6001836020036101000a0380198251168184511680821785525050505050509050019150506040516020818303038152906040528051906020012060019004905060025481811515610a5d57fe5b06915050919050565b600081600280811115610a7557fe5b10151515610a8257600080fd5b600060016003608060405190810160405280898152602001888152602001871515815260200186815250908060018154018082558091505090600182039060005260206000209060040201600090919290919091506000820151816000019080519060200190610af3929190610d87565b506020820151816001015560408201518160020160006101000a81548160ff021916908315150217905550606082015181600301555050039050336004600083815260200190815260200160002060006101000a81548173ffffffffffffffffffffffffffffffffffffffff021916908373ffffffffffffffffffffffffffffffffffffffff1602179055506001600560003373ffffffffffffffffffffffffffffffffffffffff1673ffffffffffffffffffffffffffffffffffffffff168152602001908152602001600020600082825401925050819055507f91803d48f0a59c22fbdeb3634be1b35be19861fed5e4ecf7cd46877b06a2ae1b818787866040518085815260200180602001848152602001838152602001828103825285818151815260200191508051906020019080838360005b83811015610c44578082015181840152602081019050610c29565b50505050905090810190601f168015610c715780820380516001836020036101000a031916815260200191505b509550505050505060405180910390a180915050949350505050565b600073ffffffffffffffffffffffffffffffffffffffff168173ffffffffffffffffffffffffffffffffffffffff1614151515610cc957600080fd5b8073ffffffffffffffffffffffffffffffffffffffff166000809054906101000a900473ffffffffffffffffffffffffffffffffffffffff1673ffffffffffffffffffffffffffffffffffffffff167f8be0079c531659141344cd1fd0a4f28419497f9722a3daafe3b4186f6b6457e060405160405180910390a3806000806101000a81548173ffffffffffffffffffffffffffffffffffffffff021916908373ffffffffffffffffffffffffffffffffffffffff16021790555050565b828054600181600116156101000203166002900490600052602060002090601f016020900481019282601f10610dc857805160ff1916838001178555610df6565b82800160010185558215610df6579182015b82811115610df5578251825591602001919060010190610dda565b5b509050610e039190610e07565b5090565b610e2991905b80821115610e25576000816000905550600101610e0d565b5090565b9056fea165627a7a723058205c40a49f323b65c73513c439e66754b4df52801e2917e1a40d975f8fd75da3ed0029",
  "source": "pragma solidity ^0.5.0;\n\nimport \"./kibiwooregisterproducts.sol\";\n\n/// @title A contract that extents Kibiwoo's contract registration functionality for managing product's complements\n/// @author Álvaro Gericke\ncontract KibiwooManageProducts is KibiwooRegisterProducts {\n\n\t// Require that the owner of the product is the caller of the function.\n\tmodifier onlyOwnerOf (uint _productId) {\n\t\trequire (msg.sender == productToStore[_productId]);\n\t\t_;\n\t}\n\n\tevent NewComplement(uint complementId, uint productId, string name, uint sku);\n\n\t/// Dynamic array to store all the products's complements\n\t// Products[] public complements;\n\n\t/// Mapping from complement to product.\n\tmapping (uint => uint)  public complementToProduct;\n\t/// Mapping from product to complements count.\n\tmapping (uint => uint)  public productComplementCount;\n\n\t/// @notice Adds a new complement to the actual product.\n    /// @dev If no name is assigned, it will be assigned an empty string.\n    /// @param _productId The unique identifier of the product to which a complement will be added.\n    /// @param _name String identifying the  name of the complement.\n    /// @param _sku The 36 digits identifier of the complement to be created.\n\tfunction addComplement(uint _productId, string memory _name, uint _sku) public  onlyOwnerOf(_productId) {\n\t\tuint randSku = _generateRandomSku(_name);\n\t\tuint complementId = _registerProduct(_name, randSku, true, products[_productId].category);\n\t\tcomplementToProduct[complementId] = _productId;\n\t\t// TODO: Use SafeMath\n\t\tproductComplementCount[_productId] += 1;\n\t\temit NewComplement(complementId, _productId, _name, _sku);\n\t}\n}",
  "sourcePath": "/home/agericke/Documentos/kibiwoo_blockchain/contracts/kibiwoomanageproducts.sol",
  "compiler": {
    "name": "solc",
    "version": "0.5.2+commit.1df8f40c.Emscripten.clang"
  },
  "schemaVersion": "3.0.6",
  "updatedAt": "2019-05-23T21:59:57.352Z",
  "devdoc": {
    "author": "Álvaro Gericke",
    "methods": {
      "addComplement(uint256,string,uint256)": {
        "details": "If no name is assigned, it will be assigned an empty string.",
        "params": {
          "_name": "String identifying the  name of the complement.",
          "_productId": "The unique identifier of the product to which a complement will be added.",
          "_sku": "The 36 digits identifier of the complement to be created."
        }
      },
      "createNewProduct(string,uint256)": {
        "details": "If no name is assigned, it will be assigned an empty string. This function sets isComplement to false.",
        "params": {
          "_category": "An integer that represents the category of the product.",
          "_name": "String identifying the  name of the product."
        },
        "return": "The id that uniquely identifies the registered product."
      },
      "isOwner()": {
        "return": "true if `msg.sender` is the owner of the contract."
      },
      "owner()": {
        "return": "the address of the owner."
      },
      "renounceOwnership()": {
        "details": "Allows the current owner to relinquish control of the contract. It will not be possible to call the functions with the `onlyOwner` modifier anymore."
      },
      "transferOwnership(address)": {
        "details": "Allows the current owner to transfer control of the contract to a newOwner.",
        "params": {
          "newOwner": "The address to transfer ownership to."
        }
      }
    },
    "title": "A contract that extents Kibiwoo's contract registration functionality for managing product's complements"
  },
  "userdoc": {
    "methods": {
      "addComplement(uint256,string,uint256)": {
        "notice": "Adds a new complement to the actual product."
      },
      "createNewProduct(string,uint256)": {
        "notice": "Creates a new product with id the consecutive one and name specified by caller."
      },
      "renounceOwnership()": {
        "notice": "Renouncing ownership will leave the contract without an owner, thereby removing any functionality that is only available to the owner."
      }
    }
  }
}