{
  "contractName": "KibiwooRegisterProducts",
  "abi": [
    {
      "constant": true,
      "inputs": [
        {
          "name": "",
          "type": "address"
        }
      ],
      "name": "storeProductCount",
      "outputs": [
        {
          "name": "",
          "type": "uint256"
        }
      ],
      "payable": false,
      "stateMutability": "view",
      "type": "function"
    },
    {
      "constant": false,
      "inputs": [],
      "name": "renounceOwnership",
      "outputs": [],
      "payable": false,
      "stateMutability": "nonpayable",
      "type": "function"
    },
    {
      "constant": true,
      "inputs": [
        {
          "name": "",
          "type": "uint256"
        }
      ],
      "name": "products",
      "outputs": [
        {
          "name": "name",
          "type": "string"
        },
        {
          "name": "sku",
          "type": "uint256"
        },
        {
          "name": "isComplement",
          "type": "bool"
        },
        {
          "name": "category",
          "type": "uint256"
        }
      ],
      "payable": false,
      "stateMutability": "view",
      "type": "function"
    },
    {
      "constant": true,
      "inputs": [],
      "name": "owner",
      "outputs": [
        {
          "name": "",
          "type": "address"
        }
      ],
      "payable": false,
      "stateMutability": "view",
      "type": "function"
    },
    {
      "constant": true,
      "inputs": [],
      "name": "isOwner",
      "outputs": [
        {
          "name": "",
          "type": "bool"
        }
      ],
      "payable": false,
      "stateMutability": "view",
      "type": "function"
    },
    {
      "constant": true,
      "inputs": [
        {
          "name": "",
          "type": "uint256"
        }
      ],
      "name": "productToStore",
      "outputs": [
        {
          "name": "",
          "type": "address"
        }
      ],
      "payable": false,
      "stateMutability": "view",
      "type": "function"
    },
    {
      "constant": false,
      "inputs": [
        {
          "name": "newOwner",
          "type": "address"
        }
      ],
      "name": "transferOwnership",
      "outputs": [],
      "payable": false,
      "stateMutability": "nonpayable",
      "type": "function"
    },
    {
      "anonymous": false,
      "inputs": [
        {
          "indexed": false,
          "name": "id",
          "type": "uint256"
        },
        {
          "indexed": false,
          "name": "name",
          "type": "string"
        },
        {
          "indexed": false,
          "name": "sku",
          "type": "uint256"
        },
        {
          "indexed": false,
          "name": "category",
          "type": "uint256"
        }
      ],
      "name": "NewProduct",
      "type": "event"
    },
    {
      "anonymous": false,
      "inputs": [
        {
          "indexed": true,
          "name": "previousOwner",
          "type": "address"
        },
        {
          "indexed": true,
          "name": "newOwner",
          "type": "address"
        }
      ],
      "name": "OwnershipTransferred",
      "type": "event"
    },
    {
      "constant": false,
      "inputs": [
        {
          "name": "_name",
          "type": "string"
        },
        {
          "name": "_category",
          "type": "uint256"
        }
      ],
      "name": "createNewProduct",
      "outputs": [
        {
          "name": "",
          "type": "uint256"
        }
      ],
      "payable": false,
      "stateMutability": "nonpayable",
      "type": "function"
    }
  ],
  "bytecode": "0x60806040526024600155600154600a0a600255336000806101000a81548173ffffffffffffffffffffffffffffffffffffffff021916908373ffffffffffffffffffffffffffffffffffffffff1602179055506000809054906101000a900473ffffffffffffffffffffffffffffffffffffffff1673ffffffffffffffffffffffffffffffffffffffff16600073ffffffffffffffffffffffffffffffffffffffff167f8be0079c531659141344cd1fd0a4f28419497f9722a3daafe3b4186f6b6457e060405160405180910390a3610b12806100dd6000396000f3fe608060405234801561001057600080fd5b50600436106100a5576000357c0100000000000000000000000000000000000000000000000000000000900480638f32d59b116100785780638f32d59b14610216578063b32f7b8b14610238578063b8fe443d146102a6578063f2fde38b1461037f576100a5565b806313149d63146100aa578063715018a6146101025780637acc0b201461010c5780638da5cb5b146101cc575b600080fd5b6100ec600480360360208110156100c057600080fd5b81019080803573ffffffffffffffffffffffffffffffffffffffff1690602001909291905050506103c3565b6040518082815260200191505060405180910390f35b61010a6103db565b005b6101386004803603602081101561012257600080fd5b81019080803590602001909291905050506104ad565b604051808060200185815260200184151515158152602001838152602001828103825286818151815260200191508051906020019080838360005b8381101561018e578082015181840152602081019050610173565b50505050905090810190601f1680156101bb5780820380516001836020036101000a031916815260200191505b509550505050505060405180910390f35b6101d4610591565b604051808273ffffffffffffffffffffffffffffffffffffffff1673ffffffffffffffffffffffffffffffffffffffff16815260200191505060405180910390f35b61021e6105ba565b604051808215151515815260200191505060405180910390f35b6102646004803603602081101561024e57600080fd5b8101908080359060200190929190505050610611565b604051808273ffffffffffffffffffffffffffffffffffffffff1673ffffffffffffffffffffffffffffffffffffffff16815260200191505060405180910390f35b610369600480360360408110156102bc57600080fd5b81019080803590602001906401000000008111156102d957600080fd5b8201836020820111156102eb57600080fd5b8035906020019184600183028401116401000000008311171561030d57600080fd5b91908080601f016020809104026020016040519081016040528093929190818152602001838380828437600081840152601f19601f82011690508083019250505050505050919291929080359060200190929190505050610644565b6040518082815260200191505060405180910390f35b6103c16004803603602081101561039557600080fd5b81019080803573ffffffffffffffffffffffffffffffffffffffff16906020019092919050505061066e565b005b60056020528060005260406000206000915090505481565b6103e36105ba565b15156103ee57600080fd5b600073ffffffffffffffffffffffffffffffffffffffff166000809054906101000a900473ffffffffffffffffffffffffffffffffffffffff1673ffffffffffffffffffffffffffffffffffffffff167f8be0079c531659141344cd1fd0a4f28419497f9722a3daafe3b4186f6b6457e060405160405180910390a360008060006101000a81548173ffffffffffffffffffffffffffffffffffffffff021916908373ffffffffffffffffffffffffffffffffffffffff160217905550565b6003818154811015156104bc57fe5b9060005260206000209060040201600091509050806000018054600181600116156101000203166002900480601f0160208091040260200160405190810160405280929190818152602001828054600181600116156101000203166002900480156105685780601f1061053d57610100808354040283529160200191610568565b820191906000526020600020905b81548152906001019060200180831161054b57829003601f168201915b5050505050908060010154908060020160009054906101000a900460ff16908060030154905084565b60008060009054906101000a900473ffffffffffffffffffffffffffffffffffffffff16905090565b60008060009054906101000a900473ffffffffffffffffffffffffffffffffffffffff1673ffffffffffffffffffffffffffffffffffffffff163373ffffffffffffffffffffffffffffffffffffffff1614905090565b60046020528060005260406000206000915054906101000a900473ffffffffffffffffffffffffffffffffffffffff1681565b6000806106508461068d565b905060006106618583600087610720565b9050809250505092915050565b6106766105ba565b151561068157600080fd5b61068a81610947565b50565b600080826040516020018082805190602001908083835b6020831015156106c957805182526020820191506020810190506020830392506106a4565b6001836020036101000a038019825116818451168082178552505050505050905001915050604051602081830303815290604052805190602001206001900490506002548181151561071757fe5b06915050919050565b60008160028081111561072f57fe5b1015151561073c57600080fd5b6000600160036080604051908101604052808981526020018881526020018715158152602001868152509080600181540180825580915050906001820390600052602060002090600402016000909192909190915060008201518160000190805190602001906107ad929190610a41565b506020820151816001015560408201518160020160006101000a81548160ff021916908315150217905550606082015181600301555050039050336004600083815260200190815260200160002060006101000a81548173ffffffffffffffffffffffffffffffffffffffff021916908373ffffffffffffffffffffffffffffffffffffffff1602179055506001600560003373ffffffffffffffffffffffffffffffffffffffff1673ffffffffffffffffffffffffffffffffffffffff168152602001908152602001600020600082825401925050819055507f91803d48f0a59c22fbdeb3634be1b35be19861fed5e4ecf7cd46877b06a2ae1b818787866040518085815260200180602001848152602001838152602001828103825285818151815260200191508051906020019080838360005b838110156108fe5780820151818401526020810190506108e3565b50505050905090810190601f16801561092b5780820380516001836020036101000a031916815260200191505b509550505050505060405180910390a180915050949350505050565b600073ffffffffffffffffffffffffffffffffffffffff168173ffffffffffffffffffffffffffffffffffffffff161415151561098357600080fd5b8073ffffffffffffffffffffffffffffffffffffffff166000809054906101000a900473ffffffffffffffffffffffffffffffffffffffff1673ffffffffffffffffffffffffffffffffffffffff167f8be0079c531659141344cd1fd0a4f28419497f9722a3daafe3b4186f6b6457e060405160405180910390a3806000806101000a81548173ffffffffffffffffffffffffffffffffffffffff021916908373ffffffffffffffffffffffffffffffffffffffff16021790555050565b828054600181600116156101000203166002900490600052602060002090601f016020900481019282601f10610a8257805160ff1916838001178555610ab0565b82800160010185558215610ab0579182015b82811115610aaf578251825591602001919060010190610a94565b5b509050610abd9190610ac1565b5090565b610ae391905b80821115610adf576000816000905550600101610ac7565b5090565b9056fea165627a7a72305820db3d6ee55c406ebd81d5f312cf995481b9a390e7ab5d1073de158f89a7f496e40029",
  "source": "pragma solidity ^0.5.0;\n\nimport 'openzeppelin-solidity/contracts/ownership/Ownable.sol';\nimport 'openzeppelin-solidity/contracts/math/SafeMath.sol';\n\n/// @title A contract for managing Kibiwoo's products registration.\n/// @author Álvaro Gericke\n\ncontract KibiwooRegisterProducts is Ownable {\n\t// TODO: Use Safemath library from openzeppelin\n\t//using SafeMath for uint256;\n\n\tevent NewProduct(uint id, string name, uint sku, uint category);\n\t\n\t/// The number of digits that the identifier of the product will have.\n\t/// \tThe first 16 digits correspond to the shop identifier.\n\t///\t\tThe last 20 digits correspond to the product identifier.\n\tuint productIdDigits = 36;\n\tuint productIdModulus = 10 ** productIdDigits;\n\n\tenum Categories { Surf, Cycling, Ski }\n\n\tCategories constant defaultCategory = Categories.Surf;\n\n\t/// @notice Special structure for defining a product\n\t/// @param name - The name of the product set by the owner of the product\n\t/// @param sku - The productId that identifies uniquely each product\n\tstruct Product {\n\t\tstring name;\n\t\tuint sku;\n\t\tbool isComplement;\n\t\tuint category;\n\t}\n\n\t/// Dynamic array to store all the products\n\tProduct[] public products;\n\n\t/// Mapping from product to owner store (Ethereum Address).\n\tmapping (uint => address)  public productToStore;\n\t/// Mapping from store (Ethereum Address) to product count.\n\tmapping (address => uint)  public storeProductCount;\n\n\t// address[20] public _owners;\n\t// struct User {\n\t// \taddress user_address;\n\t// \tstring email;\n\t// \tstring name;\n\t// }\n\n\t// User[] private _owners;\n\n\t/// @notice Creates a new product with id the consecutive one and name specified by caller.\n    /// @dev If no name is assigned, it will be assigned an empty string.\n    /// @param _name String identifying the  name of the product.\n    /// @param _sku The 36 digits identifier of the product to be created.\n    /// @param _isComplement Boolean that indicates if this product is a complement from another product.\n    /// @param _category An integer that represents the category of the product.\n    /// @return The id that uniquely identifies the registered product.\n\tfunction _registerProduct(string memory _name, uint _sku, bool _isComplement, uint _category) internal returns (uint) {\n\t\t//_owners[_id] = msg.sender;\n\t\t// TODO: deal with categories variable\n\t\t// Require that the uint that represents the category coincides with the number of vategories defined\n\t\trequire(uint(Categories.Ski) >= _category);\n\t\tuint id = products.push(Product(_name, _sku, _isComplement, _category)) - 1;\n\t\tproductToStore[id] = msg.sender;\n\t\t// TODO: Use Safemath libarary form openzeppelin\n\t\tstoreProductCount[msg.sender] += 1;\n\t\temit NewProduct(id, _name, _sku, _category);\n\t\treturn id;\n\t}\n\n\t/// @notice Generates Random sku as an identifier for the product.\n    /// @param _name String identifying the  name of the product.\n    /// @return The last `productIdModulus`of the generated random number\n\tfunction _generateRandomSku (string memory _name) internal view returns (uint) {\n\t\tuint rand = uint(keccak256(abi.encodePacked(_name)));\n\t\treturn rand % productIdModulus;\n\t}\n\n\t/// @notice Creates a new product with id the consecutive one and name specified by caller.\n    /// @dev If no name is assigned, it will be assigned an empty string. This function sets isComplement to false.\n    /// @param _name String identifying the  name of the product.\n    /// @param _category An integer that represents the category of the product.\n    /// @return The id that uniquely identifies the registered product.\n\tfunction createNewProduct(string memory _name, uint _category) public returns(uint) {\n\t\tuint randSku = _generateRandomSku(_name);\n\t\tuint id = _registerProduct(_name, randSku, false, _category);\n\t\treturn id;\n\t}\n\t// function _createUser(address _user_address, string _email, string _name) private {\n\t// \tusers.push(User(_user_address, _email, _name))\n\t// }\n}",
  "sourcePath": "/home/agericke/Documentos/kibiwoo_blockchain/contracts/kibiwooregisterproducts.sol",
  "compiler": {
    "name": "solc",
    "version": "0.5.2+commit.1df8f40c.Emscripten.clang"
  },
  "schemaVersion": "3.0.6",
  "updatedAt": "2019-05-23T21:38:51.391Z",
  "devdoc": {
    "author": "Álvaro Gericke",
    "methods": {
      "createNewProduct(string,uint256)": {
        "details": "If no name is assigned, it will be assigned an empty string. This function sets isComplement to false.",
        "params": {
          "_category": "An integer that represents the category of the product.",
          "_name": "String identifying the  name of the product."
        },
        "return": "The id that uniquely identifies the registered product."
      },
      "isOwner()": {
        "return": "true if `msg.sender` is the owner of the contract."
      },
      "owner()": {
        "return": "the address of the owner."
      },
      "renounceOwnership()": {
        "details": "Allows the current owner to relinquish control of the contract. It will not be possible to call the functions with the `onlyOwner` modifier anymore."
      },
      "transferOwnership(address)": {
        "details": "Allows the current owner to transfer control of the contract to a newOwner.",
        "params": {
          "newOwner": "The address to transfer ownership to."
        }
      }
    },
    "title": "A contract for managing Kibiwoo's products registration."
  },
  "userdoc": {
    "methods": {
      "createNewProduct(string,uint256)": {
        "notice": "Creates a new product with id the consecutive one and name specified by caller."
      },
      "renounceOwnership()": {
        "notice": "Renouncing ownership will leave the contract without an owner, thereby removing any functionality that is only available to the owner."
      }
    }
  }
}