{
  "contractName": "KibiwooManageProducts",
  "abi": [
    {
      "constant": true,
      "inputs": [
        {
          "name": "",
          "type": "address"
        }
      ],
      "name": "storeProductCount",
      "outputs": [
        {
          "name": "",
          "type": "uint256"
        }
      ],
      "payable": false,
      "stateMutability": "view",
      "type": "function",
      "signature": "0x13149d63"
    },
    {
      "constant": true,
      "inputs": [
        {
          "name": "",
          "type": "uint256"
        }
      ],
      "name": "complementToProduct",
      "outputs": [
        {
          "name": "",
          "type": "uint256"
        }
      ],
      "payable": false,
      "stateMutability": "view",
      "type": "function",
      "signature": "0x6824506e"
    },
    {
      "constant": false,
      "inputs": [],
      "name": "renounceOwnership",
      "outputs": [],
      "payable": false,
      "stateMutability": "nonpayable",
      "type": "function",
      "signature": "0x715018a6"
    },
    {
      "constant": true,
      "inputs": [
        {
          "name": "",
          "type": "uint256"
        }
      ],
      "name": "products",
      "outputs": [
        {
          "name": "name",
          "type": "string"
        },
        {
          "name": "sku",
          "type": "uint256"
        },
        {
          "name": "isComplement",
          "type": "bool"
        },
        {
          "name": "category",
          "type": "uint8"
        }
      ],
      "payable": false,
      "stateMutability": "view",
      "type": "function",
      "signature": "0x7acc0b20"
    },
    {
      "constant": true,
      "inputs": [
        {
          "name": "",
          "type": "uint256"
        }
      ],
      "name": "productComplementCount",
      "outputs": [
        {
          "name": "",
          "type": "uint256"
        }
      ],
      "payable": false,
      "stateMutability": "view",
      "type": "function",
      "signature": "0x7cecc587"
    },
    {
      "constant": true,
      "inputs": [],
      "name": "owner",
      "outputs": [
        {
          "name": "",
          "type": "address"
        }
      ],
      "payable": false,
      "stateMutability": "view",
      "type": "function",
      "signature": "0x8da5cb5b"
    },
    {
      "constant": true,
      "inputs": [],
      "name": "isOwner",
      "outputs": [
        {
          "name": "",
          "type": "bool"
        }
      ],
      "payable": false,
      "stateMutability": "view",
      "type": "function",
      "signature": "0x8f32d59b"
    },
    {
      "constant": true,
      "inputs": [
        {
          "name": "",
          "type": "uint256"
        }
      ],
      "name": "productToStore",
      "outputs": [
        {
          "name": "",
          "type": "address"
        }
      ],
      "payable": false,
      "stateMutability": "view",
      "type": "function",
      "signature": "0xb32f7b8b"
    },
    {
      "constant": false,
      "inputs": [
        {
          "name": "newOwner",
          "type": "address"
        }
      ],
      "name": "transferOwnership",
      "outputs": [],
      "payable": false,
      "stateMutability": "nonpayable",
      "type": "function",
      "signature": "0xf2fde38b"
    },
    {
      "constant": false,
      "inputs": [
        {
          "name": "_name",
          "type": "string"
        },
        {
          "name": "_category",
          "type": "uint8"
        }
      ],
      "name": "createNewProduct",
      "outputs": [],
      "payable": false,
      "stateMutability": "nonpayable",
      "type": "function",
      "signature": "0xfae4e1fc"
    },
    {
      "anonymous": false,
      "inputs": [
        {
          "indexed": false,
          "name": "complementId",
          "type": "uint256"
        },
        {
          "indexed": false,
          "name": "productId",
          "type": "uint256"
        },
        {
          "indexed": false,
          "name": "name",
          "type": "string"
        },
        {
          "indexed": false,
          "name": "sku",
          "type": "uint256"
        }
      ],
      "name": "NewComplement",
      "type": "event",
      "signature": "0x488a6f9649a3f053251074e5b8850b5d9bfbe4c57296e8a91fd573972528fce4"
    },
    {
      "anonymous": false,
      "inputs": [
        {
          "indexed": false,
          "name": "id",
          "type": "uint256"
        },
        {
          "indexed": false,
          "name": "name",
          "type": "string"
        },
        {
          "indexed": false,
          "name": "sku",
          "type": "uint256"
        },
        {
          "indexed": false,
          "name": "category",
          "type": "uint8"
        }
      ],
      "name": "NewProduct",
      "type": "event",
      "signature": "0x436a659faa1fb9e5e1200c39a7bbd18817744c3c67acc8769dd528b9399b4e0d"
    },
    {
      "anonymous": false,
      "inputs": [
        {
          "indexed": true,
          "name": "previousOwner",
          "type": "address"
        },
        {
          "indexed": true,
          "name": "newOwner",
          "type": "address"
        }
      ],
      "name": "OwnershipTransferred",
      "type": "event",
      "signature": "0x8be0079c531659141344cd1fd0a4f28419497f9722a3daafe3b4186f6b6457e0"
    },
    {
      "constant": false,
      "inputs": [
        {
          "name": "_productId",
          "type": "uint256"
        },
        {
          "name": "_name",
          "type": "string"
        },
        {
          "name": "_sku",
          "type": "uint256"
        }
      ],
      "name": "addComplement",
      "outputs": [],
      "payable": false,
      "stateMutability": "nonpayable",
      "type": "function",
      "signature": "0x1a5d0e7d"
    }
  ],
  "bytecode": "0x60806040526024600155600154600a0a600255336000806101000a81548173ffffffffffffffffffffffffffffffffffffffff021916908373ffffffffffffffffffffffffffffffffffffffff1602179055506000809054906101000a900473ffffffffffffffffffffffffffffffffffffffff1673ffffffffffffffffffffffffffffffffffffffff16600073ffffffffffffffffffffffffffffffffffffffff167f8be0079c531659141344cd1fd0a4f28419497f9722a3daafe3b4186f6b6457e060405160405180910390a3610eaf806100dd6000396000f3fe608060405234801561001057600080fd5b50600436106100c6576000357c0100000000000000000000000000000000000000000000000000000000900480637cecc5871161008e5780637cecc5871461030c5780638da5cb5b1461034e5780638f32d59b14610398578063b32f7b8b146103ba578063f2fde38b14610428578063fae4e1fc1461046c576100c6565b806313149d63146100cb5780631a5d0e7d146101235780636824506e146101f2578063715018a6146102345780637acc0b201461023e575b600080fd5b61010d600480360360208110156100e157600080fd5b81019080803573ffffffffffffffffffffffffffffffffffffffff169060200190929190505050610534565b6040518082815260200191505060405180910390f35b6101f06004803603606081101561013957600080fd5b81019080803590602001909291908035906020019064010000000081111561016057600080fd5b82018360208201111561017257600080fd5b8035906020019184600183028401116401000000008311171561019457600080fd5b91908080601f016020809104026020016040519081016040528093929190818152602001838380828437600081840152601f19601f8201169050808301925050505050505091929192908035906020019092919050505061054c565b005b61021e6004803603602081101561020857600080fd5b8101908080359060200190929190505050610701565b6040518082815260200191505060405180910390f35b61023c610719565b005b61026a6004803603602081101561025457600080fd5b81019080803590602001909291905050506107eb565b60405180806020018581526020018415151515815260200183600281111561028e57fe5b60ff168152602001828103825286818151815260200191508051906020019080838360005b838110156102ce5780820151818401526020810190506102b3565b50505050905090810190601f1680156102fb5780820380516001836020036101000a031916815260200191505b509550505050505060405180910390f35b6103386004803603602081101561032257600080fd5b81019080803590602001909291905050506108dc565b6040518082815260200191505060405180910390f35b6103566108f4565b604051808273ffffffffffffffffffffffffffffffffffffffff1673ffffffffffffffffffffffffffffffffffffffff16815260200191505060405180910390f35b6103a061091d565b604051808215151515815260200191505060405180910390f35b6103e6600480360360208110156103d057600080fd5b8101908080359060200190929190505050610974565b604051808273ffffffffffffffffffffffffffffffffffffffff1673ffffffffffffffffffffffffffffffffffffffff16815260200191505060405180910390f35b61046a6004803603602081101561043e57600080fd5b81019080803573ffffffffffffffffffffffffffffffffffffffff1690602001909291905050506109a7565b005b6105326004803603604081101561048257600080fd5b810190808035906020019064010000000081111561049f57600080fd5b8201836020820111156104b157600080fd5b803590602001918460018302840111640100000000831117156104d357600080fd5b91908080601f016020809104026020016040519081016040528093929190818152602001838380828437600081840152601f19601f820116905080830192505050505050509192919290803560ff1690602001909291905050506109c6565b005b60056020528060005260406000206000915090505481565b826004600082815260200190815260200160002060009054906101000a900473ffffffffffffffffffffffffffffffffffffffff1673ffffffffffffffffffffffffffffffffffffffff163373ffffffffffffffffffffffffffffffffffffffff161415156105ba57600080fd5b60006105c5846109e6565b905060006106038583600160038a8154811015156105df57fe5b906000526020600020906003020160020160019054906101000a900460ff16610a79565b905085600660008381526020019081526020016000208190555061064460016007600089815260200190815260200160002054610cc390919063ffffffff16565b507f488a6f9649a3f053251074e5b8850b5d9bfbe4c57296e8a91fd573972528fce4818787876040518085815260200184815260200180602001838152602001828103825284818151815260200191508051906020019080838360005b838110156106bc5780820151818401526020810190506106a1565b50505050905090810190601f1680156106e95780820380516001836020036101000a031916815260200191505b509550505050505060405180910390a1505050505050565b60066020528060005260406000206000915090505481565b61072161091d565b151561072c57600080fd5b600073ffffffffffffffffffffffffffffffffffffffff166000809054906101000a900473ffffffffffffffffffffffffffffffffffffffff1673ffffffffffffffffffffffffffffffffffffffff167f8be0079c531659141344cd1fd0a4f28419497f9722a3daafe3b4186f6b6457e060405160405180910390a360008060006101000a81548173ffffffffffffffffffffffffffffffffffffffff021916908373ffffffffffffffffffffffffffffffffffffffff160217905550565b6003818154811015156107fa57fe5b9060005260206000209060030201600091509050806000018054600181600116156101000203166002900480601f0160208091040260200160405190810160405280929190818152602001828054600181600116156101000203166002900480156108a65780601f1061087b576101008083540402835291602001916108a6565b820191906000526020600020905b81548152906001019060200180831161088957829003601f168201915b5050505050908060010154908060020160009054906101000a900460ff16908060020160019054906101000a900460ff16905084565b60076020528060005260406000206000915090505481565b60008060009054906101000a900473ffffffffffffffffffffffffffffffffffffffff16905090565b60008060009054906101000a900473ffffffffffffffffffffffffffffffffffffffff1673ffffffffffffffffffffffffffffffffffffffff163373ffffffffffffffffffffffffffffffffffffffff1614905090565b60046020528060005260406000206000915054906101000a900473ffffffffffffffffffffffffffffffffffffffff1681565b6109af61091d565b15156109ba57600080fd5b6109c381610ce4565b50565b60006109d1836109e6565b90506109e08382600085610a79565b50505050565b600080826040516020018082805190602001908083835b602083101515610a2257805182526020820191506020810190506020830392506109fd565b6001836020036101000a0380198251168184511680821785525050505050509050019150506040516020818303038152906040528051906020012060019004905060025481811515610a7057fe5b06915050919050565b600080600160036080604051908101604052808981526020018881526020018715158152602001866002811115610aac57fe5b815250908060018154018082558091505090600182039060005260206000209060030201600090919290919091506000820151816000019080519060200190610af6929190610dde565b506020820151816001015560408201518160020160006101000a81548160ff02191690831515021790555060608201518160020160016101000a81548160ff02191690836002811115610b4557fe5b02179055505050039050336004600083815260200190815260200160002060006101000a81548173ffffffffffffffffffffffffffffffffffffffff021916908373ffffffffffffffffffffffffffffffffffffffff160217905550610bf46001600560003373ffffffffffffffffffffffffffffffffffffffff1673ffffffffffffffffffffffffffffffffffffffff16815260200190815260200160002054610cc390919063ffffffff16565b507f436a659faa1fb9e5e1200c39a7bbd18817744c3c67acc8769dd528b9399b4e0d818787866040518085815260200180602001848152602001836002811115610c3a57fe5b60ff168152602001828103825285818151815260200191508051906020019080838360005b83811015610c7a578082015181840152602081019050610c5f565b50505050905090810190601f168015610ca75780820380516001836020036101000a031916815260200191505b509550505050505060405180910390a180915050949350505050565b6000808284019050838110151515610cda57600080fd5b8091505092915050565b600073ffffffffffffffffffffffffffffffffffffffff168173ffffffffffffffffffffffffffffffffffffffff1614151515610d2057600080fd5b8073ffffffffffffffffffffffffffffffffffffffff166000809054906101000a900473ffffffffffffffffffffffffffffffffffffffff1673ffffffffffffffffffffffffffffffffffffffff167f8be0079c531659141344cd1fd0a4f28419497f9722a3daafe3b4186f6b6457e060405160405180910390a3806000806101000a81548173ffffffffffffffffffffffffffffffffffffffff021916908373ffffffffffffffffffffffffffffffffffffffff16021790555050565b828054600181600116156101000203166002900490600052602060002090601f016020900481019282601f10610e1f57805160ff1916838001178555610e4d565b82800160010185558215610e4d579182015b82811115610e4c578251825591602001919060010190610e31565b5b509050610e5a9190610e5e565b5090565b610e8091905b80821115610e7c576000816000905550600101610e64565b5090565b9056fea165627a7a723058207f0caeec5fd06a8786b7612e524bc817ddb680bdc1705b39452d422e62da2bc60029",
  "source": "pragma solidity ^0.5.0;\n\nimport \"./kibiwooregisterproducts.sol\";\n\n/// @title A contract that extents Kibiwoo's contract registration functionality for managing product's complements\n/// @author Álvaro Gericke\ncontract KibiwooManageProducts is KibiwooRegisterProducts {\n\n\t// Require that the owner of the product is the caller of the function.\n\tmodifier onlyOwnerOf (uint _productId) {\n\t\trequire (msg.sender == productToStore[_productId]);\n\t\t_;\n\t}\n\n\tevent NewComplement(uint complementId, uint productId, string name, uint sku);\n\n\t/// Dynamic array to store all the products's complements\n\t// Products[] public complements;\n\n\t/// Mapping from complement to product.\n\tmapping (uint => uint)  public complementToProduct;\n\t/// Mapping from product to complements count.\n\tmapping (uint => uint)  public productComplementCount;\n\n\t/// @notice Adds a new complement to the actual product.\n    /// @dev If no name is assigned, it will be assigned an empty string.\n    /// @param _productId The unique identifier of the product to which a complement will be added.\n    /// @param _name String identifying the  name of the complement.\n    /// @param _sku The 36 digits identifier of the complement to be created.\n\tfunction addComplement(uint _productId, string memory _name, uint _sku) public  onlyOwnerOf(_productId) {\n\t\tuint randSku = _generateRandomSku(_name);\n\t\tuint complementId = _registerProduct(_name, randSku, true, products[_productId].category);\n\t\tcomplementToProduct[complementId] = _productId;\n\t\tproductComplementCount[_productId].add(1);\n\t\temit NewComplement(complementId, _productId, _name, _sku);\n\t}\n}",
  "sourcePath": "/home/agericke/Documentos/kibiwoo_blockchain/contracts/kibiwoomanageproducts.sol",
  "compiler": {
    "name": "solc",
    "version": "0.5.2+commit.1df8f40c.Emscripten.clang"
  },
  "schemaVersion": "3.0.6",
  "updatedAt": "2019-04-10T01:43:44.892Z",
  "devdoc": {
    "author": "Álvaro Gericke",
    "methods": {
      "addComplement(uint256,string,uint256)": {
        "details": "If no name is assigned, it will be assigned an empty string.",
        "params": {
          "_name": "String identifying the  name of the complement.",
          "_productId": "The unique identifier of the product to which a complement will be added.",
          "_sku": "The 36 digits identifier of the complement to be created."
        }
      },
      "isOwner()": {
        "return": "true if `msg.sender` is the owner of the contract."
      },
      "owner()": {
        "return": "the address of the owner."
      },
      "renounceOwnership()": {
        "details": "Allows the current owner to relinquish control of the contract. It will not be possible to call the functions with the `onlyOwner` modifier anymore."
      },
      "transferOwnership(address)": {
        "details": "Allows the current owner to transfer control of the contract to a newOwner.",
        "params": {
          "newOwner": "The address to transfer ownership to."
        }
      }
    },
    "title": "A contract that extents Kibiwoo's contract registration functionality for managing product's complements"
  },
  "userdoc": {
    "methods": {
      "addComplement(uint256,string,uint256)": {
        "notice": "Adds a new complement to the actual product."
      },
      "renounceOwnership()": {
        "notice": "Renouncing ownership will leave the contract without an owner, thereby removing any functionality that is only available to the owner."
      }
    }
  }
}