{
  "contractName": "KibiwooOwnership",
  "abi": [
    {
      "constant": true,
      "inputs": [
        {
          "name": "",
          "type": "address"
        }
      ],
      "name": "storeProductCount",
      "outputs": [
        {
          "name": "",
          "type": "uint256"
        }
      ],
      "payable": false,
      "stateMutability": "view",
      "type": "function",
      "signature": "0x13149d63"
    },
    {
      "constant": false,
      "inputs": [
        {
          "name": "_productId",
          "type": "uint256"
        },
        {
          "name": "_name",
          "type": "string"
        },
        {
          "name": "_sku",
          "type": "uint256"
        }
      ],
      "name": "addComplement",
      "outputs": [],
      "payable": false,
      "stateMutability": "nonpayable",
      "type": "function",
      "signature": "0x1a5d0e7d"
    },
    {
      "constant": false,
      "inputs": [],
      "name": "withdraw",
      "outputs": [],
      "payable": false,
      "stateMutability": "nonpayable",
      "type": "function",
      "signature": "0x3ccfd60b"
    },
    {
      "constant": true,
      "inputs": [
        {
          "name": "",
          "type": "uint256"
        }
      ],
      "name": "complementToProduct",
      "outputs": [
        {
          "name": "",
          "type": "uint256"
        }
      ],
      "payable": false,
      "stateMutability": "view",
      "type": "function",
      "signature": "0x6824506e"
    },
    {
      "constant": false,
      "inputs": [],
      "name": "renounceOwnership",
      "outputs": [],
      "payable": false,
      "stateMutability": "nonpayable",
      "type": "function",
      "signature": "0x715018a6"
    },
    {
      "constant": true,
      "inputs": [
        {
          "name": "",
          "type": "uint256"
        }
      ],
      "name": "products",
      "outputs": [
        {
          "name": "name",
          "type": "string"
        },
        {
          "name": "sku",
          "type": "uint256"
        },
        {
          "name": "isComplement",
          "type": "bool"
        },
        {
          "name": "category",
          "type": "uint8"
        }
      ],
      "payable": false,
      "stateMutability": "view",
      "type": "function",
      "signature": "0x7acc0b20"
    },
    {
      "constant": true,
      "inputs": [
        {
          "name": "",
          "type": "uint256"
        }
      ],
      "name": "productComplementCount",
      "outputs": [
        {
          "name": "",
          "type": "uint256"
        }
      ],
      "payable": false,
      "stateMutability": "view",
      "type": "function",
      "signature": "0x7cecc587"
    },
    {
      "constant": true,
      "inputs": [],
      "name": "owner",
      "outputs": [
        {
          "name": "",
          "type": "address"
        }
      ],
      "payable": false,
      "stateMutability": "view",
      "type": "function",
      "signature": "0x8da5cb5b"
    },
    {
      "constant": true,
      "inputs": [],
      "name": "isOwner",
      "outputs": [
        {
          "name": "",
          "type": "bool"
        }
      ],
      "payable": false,
      "stateMutability": "view",
      "type": "function",
      "signature": "0x8f32d59b"
    },
    {
      "constant": true,
      "inputs": [
        {
          "name": "_owner",
          "type": "address"
        }
      ],
      "name": "getProductsByShop",
      "outputs": [
        {
          "name": "",
          "type": "uint256[]"
        }
      ],
      "payable": false,
      "stateMutability": "view",
      "type": "function",
      "signature": "0xb015329c"
    },
    {
      "constant": true,
      "inputs": [
        {
          "name": "",
          "type": "uint256"
        }
      ],
      "name": "productToStore",
      "outputs": [
        {
          "name": "",
          "type": "address"
        }
      ],
      "payable": false,
      "stateMutability": "view",
      "type": "function",
      "signature": "0xb32f7b8b"
    },
    {
      "constant": false,
      "inputs": [
        {
          "name": "newOwner",
          "type": "address"
        }
      ],
      "name": "transferOwnership",
      "outputs": [],
      "payable": false,
      "stateMutability": "nonpayable",
      "type": "function",
      "signature": "0xf2fde38b"
    },
    {
      "constant": false,
      "inputs": [
        {
          "name": "_name",
          "type": "string"
        },
        {
          "name": "_category",
          "type": "uint8"
        }
      ],
      "name": "createNewProduct",
      "outputs": [],
      "payable": false,
      "stateMutability": "nonpayable",
      "type": "function",
      "signature": "0xfae4e1fc"
    },
    {
      "anonymous": false,
      "inputs": [
        {
          "indexed": true,
          "name": "_from",
          "type": "address"
        },
        {
          "indexed": true,
          "name": "_to",
          "type": "address"
        },
        {
          "indexed": true,
          "name": "_tokenId",
          "type": "uint256"
        }
      ],
      "name": "Transfer",
      "type": "event",
      "signature": "0xddf252ad1be2c89b69c2b068fc378daa952ba7f163c4a11628f55a4df523b3ef"
    },
    {
      "anonymous": false,
      "inputs": [
        {
          "indexed": true,
          "name": "_owner",
          "type": "address"
        },
        {
          "indexed": true,
          "name": "_approved",
          "type": "address"
        },
        {
          "indexed": true,
          "name": "_tokenId",
          "type": "uint256"
        }
      ],
      "name": "Approval",
      "type": "event",
      "signature": "0x8c5be1e5ebec7d5bd14f71427d1e84f3dd0314c0f7b2291e5b200ac8c7c3b925"
    },
    {
      "anonymous": false,
      "inputs": [
        {
          "indexed": true,
          "name": "_owner",
          "type": "address"
        },
        {
          "indexed": true,
          "name": "_operator",
          "type": "address"
        },
        {
          "indexed": false,
          "name": "_approved",
          "type": "bool"
        }
      ],
      "name": "ApprovalForAll",
      "type": "event",
      "signature": "0x17307eab39ab6107e8899845ad3d59bd9653f200f220920489ca2b5937696c31"
    },
    {
      "anonymous": false,
      "inputs": [
        {
          "indexed": false,
          "name": "complementId",
          "type": "uint256"
        },
        {
          "indexed": false,
          "name": "productId",
          "type": "uint256"
        },
        {
          "indexed": false,
          "name": "name",
          "type": "string"
        },
        {
          "indexed": false,
          "name": "sku",
          "type": "uint256"
        }
      ],
      "name": "NewComplement",
      "type": "event",
      "signature": "0x488a6f9649a3f053251074e5b8850b5d9bfbe4c57296e8a91fd573972528fce4"
    },
    {
      "anonymous": false,
      "inputs": [
        {
          "indexed": false,
          "name": "id",
          "type": "uint256"
        },
        {
          "indexed": false,
          "name": "name",
          "type": "string"
        },
        {
          "indexed": false,
          "name": "sku",
          "type": "uint256"
        },
        {
          "indexed": false,
          "name": "category",
          "type": "uint8"
        }
      ],
      "name": "NewProduct",
      "type": "event",
      "signature": "0x436a659faa1fb9e5e1200c39a7bbd18817744c3c67acc8769dd528b9399b4e0d"
    },
    {
      "anonymous": false,
      "inputs": [
        {
          "indexed": true,
          "name": "previousOwner",
          "type": "address"
        },
        {
          "indexed": true,
          "name": "newOwner",
          "type": "address"
        }
      ],
      "name": "OwnershipTransferred",
      "type": "event",
      "signature": "0x8be0079c531659141344cd1fd0a4f28419497f9722a3daafe3b4186f6b6457e0"
    },
    {
      "constant": true,
      "inputs": [
        {
          "name": "_owner",
          "type": "address"
        }
      ],
      "name": "balanceOf",
      "outputs": [
        {
          "name": "",
          "type": "uint256"
        }
      ],
      "payable": false,
      "stateMutability": "view",
      "type": "function",
      "signature": "0x70a08231"
    },
    {
      "constant": true,
      "inputs": [
        {
          "name": "_tokenId",
          "type": "uint256"
        }
      ],
      "name": "ownerOf",
      "outputs": [
        {
          "name": "",
          "type": "address"
        }
      ],
      "payable": false,
      "stateMutability": "view",
      "type": "function",
      "signature": "0x6352211e"
    },
    {
      "constant": false,
      "inputs": [
        {
          "name": "_from",
          "type": "address"
        },
        {
          "name": "_to",
          "type": "address"
        },
        {
          "name": "_tokenId",
          "type": "uint256"
        }
      ],
      "name": "transferFrom",
      "outputs": [],
      "payable": true,
      "stateMutability": "payable",
      "type": "function",
      "signature": "0x23b872dd"
    },
    {
      "constant": false,
      "inputs": [
        {
          "name": "_approved",
          "type": "address"
        },
        {
          "name": "_tokenId",
          "type": "uint256"
        }
      ],
      "name": "approve",
      "outputs": [],
      "payable": true,
      "stateMutability": "payable",
      "type": "function",
      "signature": "0x095ea7b3"
    }
  ],
  "bytecode": "0x60806040526024600155600154600a0a600255336000806101000a81548173ffffffffffffffffffffffffffffffffffffffff021916908373ffffffffffffffffffffffffffffffffffffffff1602179055506000809054906101000a900473ffffffffffffffffffffffffffffffffffffffff1673ffffffffffffffffffffffffffffffffffffffff16600073ffffffffffffffffffffffffffffffffffffffff167f8be0079c531659141344cd1fd0a4f28419497f9722a3daafe3b4186f6b6457e060405160405180910390a36117a5806100dd6000396000f3fe60806040526004361061011b576000357c010000000000000000000000000000000000000000000000000000000090048063715018a6116100b25780638f32d59b116100815780638f32d59b146105fb578063b015329c1461062a578063b32f7b8b146106d0578063f2fde38b1461074b578063fae4e1fc1461079c5761011b565b8063715018a6146104635780637acc0b201461047a5780637cecc587146105555780638da5cb5b146105a45761011b565b80633ccfd60b116100ee5780633ccfd60b1461031d5780636352211e146103345780636824506e146103af57806370a08231146103fe5761011b565b8063095ea7b31461012057806313149d631461016e5780631a5d0e7d146101d357806323b872dd146102af575b600080fd5b61016c6004803603604081101561013657600080fd5b81019080803573ffffffffffffffffffffffffffffffffffffffff16906020019092919080359060200190929190505050610871565b005b34801561017a57600080fd5b506101bd6004803603602081101561019157600080fd5b81019080803573ffffffffffffffffffffffffffffffffffffffff169060200190929190505050610991565b6040518082815260200191505060405180910390f35b3480156101df57600080fd5b506102ad600480360360608110156101f657600080fd5b81019080803590602001909291908035906020019064010000000081111561021d57600080fd5b82018360208201111561022f57600080fd5b8035906020019184600183028401116401000000008311171561025157600080fd5b91908080601f016020809104026020016040519081016040528093929190818152602001838380828437600081840152601f19601f820116905080830192505050505050509192919290803590602001909291905050506109a9565b005b61031b600480360360608110156102c557600080fd5b81019080803573ffffffffffffffffffffffffffffffffffffffff169060200190929190803573ffffffffffffffffffffffffffffffffffffffff16906020019092919080359060200190929190505050610b5e565b005b34801561032957600080fd5b50610332610c44565b005b34801561034057600080fd5b5061036d6004803603602081101561035757600080fd5b8101908080359060200190929190505050610cc4565b604051808273ffffffffffffffffffffffffffffffffffffffff1673ffffffffffffffffffffffffffffffffffffffff16815260200191505060405180910390f35b3480156103bb57600080fd5b506103e8600480360360208110156103d257600080fd5b8101908080359060200190929190505050610d01565b6040518082815260200191505060405180910390f35b34801561040a57600080fd5b5061044d6004803603602081101561042157600080fd5b81019080803573ffffffffffffffffffffffffffffffffffffffff169060200190929190505050610d19565b6040518082815260200191505060405180910390f35b34801561046f57600080fd5b50610478610d62565b005b34801561048657600080fd5b506104b36004803603602081101561049d57600080fd5b8101908080359060200190929190505050610e34565b6040518080602001858152602001841515151581526020018360028111156104d757fe5b60ff168152602001828103825286818151815260200191508051906020019080838360005b838110156105175780820151818401526020810190506104fc565b50505050905090810190601f1680156105445780820380516001836020036101000a031916815260200191505b509550505050505060405180910390f35b34801561056157600080fd5b5061058e6004803603602081101561057857600080fd5b8101908080359060200190929190505050610f25565b6040518082815260200191505060405180910390f35b3480156105b057600080fd5b506105b9610f3d565b604051808273ffffffffffffffffffffffffffffffffffffffff1673ffffffffffffffffffffffffffffffffffffffff16815260200191505060405180910390f35b34801561060757600080fd5b50610610610f66565b604051808215151515815260200191505060405180910390f35b34801561063657600080fd5b506106796004803603602081101561064d57600080fd5b81019080803573ffffffffffffffffffffffffffffffffffffffff169060200190929190505050610fbd565b6040518080602001828103825283818151815260200191508051906020019060200280838360005b838110156106bc5780820151818401526020810190506106a1565b505050509050019250505060405180910390f35b3480156106dc57600080fd5b50610709600480360360208110156106f357600080fd5b81019080803590602001909291905050506110ee565b604051808273ffffffffffffffffffffffffffffffffffffffff1673ffffffffffffffffffffffffffffffffffffffff16815260200191505060405180910390f35b34801561075757600080fd5b5061079a6004803603602081101561076e57600080fd5b81019080803573ffffffffffffffffffffffffffffffffffffffff169060200190929190505050611121565b005b3480156107a857600080fd5b5061086f600480360360408110156107bf57600080fd5b81019080803590602001906401000000008111156107dc57600080fd5b8201836020820111156107ee57600080fd5b8035906020019184600183028401116401000000008311171561081057600080fd5b91908080601f016020809104026020016040519081016040528093929190818152602001838380828437600081840152601f19601f820116905080830192505050505050509192919290803560ff169060200190929190505050611140565b005b806004600082815260200190815260200160002060009054906101000a900473ffffffffffffffffffffffffffffffffffffffff1673ffffffffffffffffffffffffffffffffffffffff163373ffffffffffffffffffffffffffffffffffffffff161415156108df57600080fd5b826008600084815260200190815260200160002060006101000a81548173ffffffffffffffffffffffffffffffffffffffff021916908373ffffffffffffffffffffffffffffffffffffffff160217905550818373ffffffffffffffffffffffffffffffffffffffff163373ffffffffffffffffffffffffffffffffffffffff167f8c5be1e5ebec7d5bd14f71427d1e84f3dd0314c0f7b2291e5b200ac8c7c3b92560405160405180910390a4505050565b60056020528060005260406000206000915090505481565b826004600082815260200190815260200160002060009054906101000a900473ffffffffffffffffffffffffffffffffffffffff1673ffffffffffffffffffffffffffffffffffffffff163373ffffffffffffffffffffffffffffffffffffffff16141515610a1757600080fd5b6000610a2284611160565b90506000610a608583600160038a815481101515610a3c57fe5b906000526020600020906003020160020160019054906101000a900460ff166111f3565b9050856006600083815260200190815260200160002081905550610aa16001600760008981526020019081526020016000205461143d90919063ffffffff16565b507f488a6f9649a3f053251074e5b8850b5d9bfbe4c57296e8a91fd573972528fce4818787876040518085815260200184815260200180602001838152602001828103825284818151815260200191508051906020019080838360005b83811015610b19578082015181840152602081019050610afe565b50505050905090810190601f168015610b465780820380516001836020036101000a031916815260200191505b509550505050505060405180910390a1505050505050565b6004600082815260200190815260200160002060009054906101000a900473ffffffffffffffffffffffffffffffffffffffff1673ffffffffffffffffffffffffffffffffffffffff163373ffffffffffffffffffffffffffffffffffffffff161480610c2957503373ffffffffffffffffffffffffffffffffffffffff166008600083815260200190815260200160002060009054906101000a900473ffffffffffffffffffffffffffffffffffffffff1673ffffffffffffffffffffffffffffffffffffffff16145b1515610c3457600080fd5b610c3f83838361145e565b505050565b610c4c610f66565b1515610c5757600080fd5b6000610c61610f3d565b90508073ffffffffffffffffffffffffffffffffffffffff166108fc3073ffffffffffffffffffffffffffffffffffffffff16319081150290604051600060405180830381858888f19350505050158015610cc0573d6000803e3d6000fd5b5050565b60006004600083815260200190815260200160002060009054906101000a900473ffffffffffffffffffffffffffffffffffffffff169050919050565b60066020528060005260406000206000915090505481565b6000600560008373ffffffffffffffffffffffffffffffffffffffff1673ffffffffffffffffffffffffffffffffffffffff168152602001908152602001600020549050919050565b610d6a610f66565b1515610d7557600080fd5b600073ffffffffffffffffffffffffffffffffffffffff166000809054906101000a900473ffffffffffffffffffffffffffffffffffffffff1673ffffffffffffffffffffffffffffffffffffffff167f8be0079c531659141344cd1fd0a4f28419497f9722a3daafe3b4186f6b6457e060405160405180910390a360008060006101000a81548173ffffffffffffffffffffffffffffffffffffffff021916908373ffffffffffffffffffffffffffffffffffffffff160217905550565b600381815481101515610e4357fe5b9060005260206000209060030201600091509050806000018054600181600116156101000203166002900480601f016020809104026020016040519081016040528092919081815260200182805460018160011615610100020316600290048015610eef5780601f10610ec457610100808354040283529160200191610eef565b820191906000526020600020905b815481529060010190602001808311610ed257829003601f168201915b5050505050908060010154908060020160009054906101000a900460ff16908060020160019054906101000a900460ff16905084565b60076020528060005260406000206000915090505481565b60008060009054906101000a900473ffffffffffffffffffffffffffffffffffffffff16905090565b60008060009054906101000a900473ffffffffffffffffffffffffffffffffffffffff1673ffffffffffffffffffffffffffffffffffffffff163373ffffffffffffffffffffffffffffffffffffffff1614905090565b606080600560008473ffffffffffffffffffffffffffffffffffffffff1673ffffffffffffffffffffffffffffffffffffffff1681526020019081526020016000205460405190808252806020026020018201604052801561102e5781602001602082028038833980820191505090505b509050600080905060008090505b6003805490508110156110e3578473ffffffffffffffffffffffffffffffffffffffff166004600083815260200190815260200160002060009054906101000a900473ffffffffffffffffffffffffffffffffffffffff1673ffffffffffffffffffffffffffffffffffffffff1614156110d6578083838151811015156110bf57fe5b906020019060200201818152505081806001019250505b808060010191505061103c565b508192505050919050565b60046020528060005260406000206000915054906101000a900473ffffffffffffffffffffffffffffffffffffffff1681565b611129610f66565b151561113457600080fd5b61113d816115b8565b50565b600061114b83611160565b905061115a83826000856111f3565b50505050565b600080826040516020018082805190602001908083835b60208310151561119c5780518252602082019150602081019050602083039250611177565b6001836020036101000a03801982511681845116808217855250505050505090500191505060405160208183030381529060405280519060200120600190049050600254818115156111ea57fe5b06915050919050565b60008060016003608060405190810160405280898152602001888152602001871515815260200186600281111561122657fe5b8152509080600181540180825580915050906001820390600052602060002090600302016000909192909190915060008201518160000190805190602001906112709291906116d4565b506020820151816001015560408201518160020160006101000a81548160ff02191690831515021790555060608201518160020160016101000a81548160ff021916908360028111156112bf57fe5b02179055505050039050336004600083815260200190815260200160002060006101000a81548173ffffffffffffffffffffffffffffffffffffffff021916908373ffffffffffffffffffffffffffffffffffffffff16021790555061136e6001600560003373ffffffffffffffffffffffffffffffffffffffff1673ffffffffffffffffffffffffffffffffffffffff1681526020019081526020016000205461143d90919063ffffffff16565b507f436a659faa1fb9e5e1200c39a7bbd18817744c3c67acc8769dd528b9399b4e0d8187878660405180858152602001806020018481526020018360028111156113b457fe5b60ff168152602001828103825285818151815260200191508051906020019080838360005b838110156113f45780820151818401526020810190506113d9565b50505050905090810190601f1680156114215780820380516001836020036101000a031916815260200191505b509550505050505060405180910390a180915050949350505050565b600080828401905083811015151561145457600080fd5b8091505092915050565b6114b16001600560008573ffffffffffffffffffffffffffffffffffffffff1673ffffffffffffffffffffffffffffffffffffffff1681526020019081526020016000205461143d90919063ffffffff16565b506115056001600560008673ffffffffffffffffffffffffffffffffffffffff1673ffffffffffffffffffffffffffffffffffffffff168152602001908152602001600020546116b290919063ffffffff16565b50816004600083815260200190815260200160002060006101000a81548173ffffffffffffffffffffffffffffffffffffffff021916908373ffffffffffffffffffffffffffffffffffffffff160217905550808273ffffffffffffffffffffffffffffffffffffffff168473ffffffffffffffffffffffffffffffffffffffff167fddf252ad1be2c89b69c2b068fc378daa952ba7f163c4a11628f55a4df523b3ef60405160405180910390a4505050565b600073ffffffffffffffffffffffffffffffffffffffff168173ffffffffffffffffffffffffffffffffffffffff16141515156115f457600080fd5b8073ffffffffffffffffffffffffffffffffffffffff166000809054906101000a900473ffffffffffffffffffffffffffffffffffffffff1673ffffffffffffffffffffffffffffffffffffffff167f8be0079c531659141344cd1fd0a4f28419497f9722a3daafe3b4186f6b6457e060405160405180910390a3806000806101000a81548173ffffffffffffffffffffffffffffffffffffffff021916908373ffffffffffffffffffffffffffffffffffffffff16021790555050565b60008282111515156116c357600080fd5b600082840390508091505092915050565b828054600181600116156101000203166002900490600052602060002090601f016020900481019282601f1061171557805160ff1916838001178555611743565b82800160010185558215611743579182015b82811115611742578251825591602001919060010190611727565b5b5090506117509190611754565b5090565b61177691905b8082111561177257600081600090555060010161175a565b5090565b9056fea165627a7a723058204e9eac4a538c3cde7c9cca1533b97b35cee896d7cd2919b87c2caafa2392bbc40029",
  "source": "pragma solidity ^0.5.0;\n\nimport \"./kibiwoohelperproducts.sol\";\n// Change this import for importing openzeppelin erc721's implementation.\n//import \"./ERC721.sol\";\n\n/// @title A contract that implements ERC721 implementation adapted to Kibiwoo's Products as the NFTs\n/// @author lvaro Gericke\ncontract KibiwooOwnership is KibiwooHelperProducts{\n\n    /// @dev This emits when ownership of any NFT changes by any mechanism.\n    ///  This event emits when NFTs are created (`from` == 0) and destroyed\n    ///  (`to` == 0). Exception: during contract creation, any number of NFTs\n    ///  may be created and assigned without emitting Transfer. At the time of\n    ///  any transfer, the approved address for that NFT (if any) is reset to none.\n    event Transfer(address indexed _from, address indexed _to, uint256 indexed _tokenId);\n\n    /// @dev This emits when the approved address for an NFT is changed or\n    ///  reaffirmed. The zero address indicates there is no approved address.\n    ///  When a Transfer event emits, this also indicates that the approved\n    ///  address for that NFT (if any) is reset to none.\n    event Approval(address indexed _owner, address indexed _approved, uint256 indexed _tokenId);\n\n    /// @dev This emits when an operator is enabled or disabled for an owner.\n    ///  The operator can manage all NFTs of the owner.\n    event ApprovalForAll(address indexed _owner, address indexed _operator, bool _approved);\n\n    // Mapping to keep track of approvals for each product.\n    mapping(uint => address)  productApprovals;\n\n    /// @notice Count all the products a Store has.\n    /// @dev NFTs assigned to the zero address are considered invalid, and this\n    ///  function throws for queries about the zero address.\n    /// @param _owner Address of the store for whom wuery the balance\n    /// @return The number of prdocts owned by `_owner`, possibly zero\n    function balanceOf(address _owner) external view returns (uint256) {\n        return storeProductCount[_owner];\n\n    }\n\n    /// @notice Find the owner of a specific product\n    /// @dev NFTs assigned to zero address are considered invalid, and queries\n    ///  about them do throw.\n    /// @param _tokenId The identifier for an NFT. (In our case a product)\n    /// @return The address of the owner of the NFT. In our case s the address of the store that owns that product.\n    function ownerOf(uint256 _tokenId) external view returns (address) {\n           return productToStore[_tokenId];\n    }\n\n    function _transfer(address _from, address _to, uint256 _tokenId) private {\n        storeProductCount[_to].add(1);\n        storeProductCount[_from].sub(1);\n        productToStore[_tokenId] = _to;\n        emit Transfer(_from,_to,_tokenId);\n    }\n\n    /// @notice Transfer ownership of  product. -- THE CALLER IS RESPONSIBLE\n    ///  TO CONFIRM THAT `_to` IS CAPABLE OF RECEIVING NFTS OR ELSE\n    ///  THEY MAY BE PERMANENTLY LOST\n    /// @dev Throws unless `msg.sender` is the current owner, an authorized\n    ///  operator, or the approved address for this NFT. Throws if `_from` is\n    ///  not the current owner. Throws if `_to` is the zero address. Throws if\n    ///  `_tokenId` is not a valid NFT.\n    /// @param _from The current owner of the NFT\n    /// @param _to The new owner\n    /// @param _tokenId The NFT to transfer\n    function transferFrom(address _from, address _to, uint256 _tokenId) external payable {\n        require (msg.sender == productToStore[_tokenId] || productApprovals[_tokenId] == msg.sender);\n        _transfer(_from, _to, _tokenId);\n    }\n    \n\n    /// @notice Change or reaffirm the approved address for an NFT\n    /// @dev The zero address indicates there is no approved address.\n    ///  Throws unless `msg.sender` is the current NFT owner, or an authorized\n    ///  operator of the current owner.\n    /// @param _approved The new approved NFT controller\n    /// @param _tokenId The NFT to approve\n    function approve(address _approved, uint256 _tokenId) external payable onlyOwnerOf(_tokenId) {\n        productApprovals[_tokenId] = _approved;\n        emit Approval(msg.sender, _approved, _tokenId);\n    }\n\n}",
  "sourcePath": "/home/agericke/Documentos/kibiwoo_blockchain/contracts/kibiwooownership.sol",
  "compiler": {
    "name": "solc",
    "version": "0.5.2+commit.1df8f40c.Emscripten.clang"
  },
  "schemaVersion": "3.0.6",
  "updatedAt": "2019-04-10T01:43:44.944Z",
  "devdoc": {
    "author": "lvaro Gericke",
    "methods": {
      "addComplement(uint256,string,uint256)": {
        "details": "If no name is assigned, it will be assigned an empty string.",
        "params": {
          "_name": "String identifying the  name of the complement.",
          "_productId": "The unique identifier of the product to which a complement will be added.",
          "_sku": "The 36 digits identifier of the complement to be created."
        }
      },
      "approve(address,uint256)": {
        "details": "The zero address indicates there is no approved address.  Throws unless `msg.sender` is the current NFT owner, or an authorized  operator of the current owner.",
        "params": {
          "_approved": "The new approved NFT controller",
          "_tokenId": "The NFT to approve"
        }
      },
      "balanceOf(address)": {
        "details": "NFTs assigned to the zero address are considered invalid, and this  function throws for queries about the zero address.",
        "params": {
          "_owner": "Address of the store for whom wuery the balance"
        },
        "return": "The number of prdocts owned by `_owner`, possibly zero"
      },
      "getProductsByShop(address)": {
        "params": {
          "_owner": "Address of the shop to retrieve the products from it."
        },
        "return": "An array with all the IDs of the products and their complements owned by that shop"
      },
      "isOwner()": {
        "return": "true if `msg.sender` is the owner of the contract."
      },
      "owner()": {
        "return": "the address of the owner."
      },
      "ownerOf(uint256)": {
        "details": "NFTs assigned to zero address are considered invalid, and queries  about them do throw.",
        "params": {
          "_tokenId": "The identifier for an NFT. (In our case a product)"
        },
        "return": "The address of the owner of the NFT. In our case s the address of the store that owns that product."
      },
      "renounceOwnership()": {
        "details": "Allows the current owner to relinquish control of the contract. It will not be possible to call the functions with the `onlyOwner` modifier anymore."
      },
      "transferFrom(address,address,uint256)": {
        "details": "Throws unless `msg.sender` is the current owner, an authorized  operator, or the approved address for this NFT. Throws if `_from` is  not the current owner. Throws if `_to` is the zero address. Throws if  `_tokenId` is not a valid NFT.",
        "params": {
          "_from": "The current owner of the NFT",
          "_to": "The new owner",
          "_tokenId": "The NFT to transfer"
        }
      },
      "transferOwnership(address)": {
        "details": "Allows the current owner to transfer control of the contract to a newOwner.",
        "params": {
          "newOwner": "The address to transfer ownership to."
        }
      }
    },
    "title": "A contract that implements ERC721 implementation adapted to Kibiwoo's Products as the NFTs"
  },
  "userdoc": {
    "methods": {
      "addComplement(uint256,string,uint256)": {
        "notice": "Adds a new complement to the actual product."
      },
      "approve(address,uint256)": {
        "notice": "Change or reaffirm the approved address for an NFT"
      },
      "balanceOf(address)": {
        "notice": "Count all the products a Store has."
      },
      "getProductsByShop(address)": {
        "notice": "Returns all the products with its complements that are owned by a specific shop."
      },
      "ownerOf(uint256)": {
        "notice": "Find the owner of a specific product"
      },
      "renounceOwnership()": {
        "notice": "Renouncing ownership will leave the contract without an owner, thereby removing any functionality that is only available to the owner."
      },
      "transferFrom(address,address,uint256)": {
        "notice": "Transfer ownership of  product. -- THE CALLER IS RESPONSIBLE  TO CONFIRM THAT `_to` IS CAPABLE OF RECEIVING NFTS OR ELSE  THEY MAY BE PERMANENTLY LOST"
      },
      "withdraw()": {
        "notice": "Withdraws all the balance in the contract back to owner of the contract"
      }
    }
  }
}