{
  "contractName": "Kibiwoo",
  "abi": [
    {
      "constant": true,
      "inputs": [
        {
          "name": "",
          "type": "uint256"
        }
      ],
      "name": "products",
      "outputs": [
        {
          "name": "id",
          "type": "uint256"
        },
        {
          "name": "name",
          "type": "string"
        },
        {
          "name": "sport",
          "type": "string"
        },
        {
          "name": "owner",
          "type": "address"
        }
      ],
      "payable": false,
      "stateMutability": "view",
      "type": "function"
    },
    {
      "constant": true,
      "inputs": [
        {
          "name": "",
          "type": "uint256"
        }
      ],
      "name": "_owners",
      "outputs": [
        {
          "name": "",
          "type": "address"
        }
      ],
      "payable": false,
      "stateMutability": "view",
      "type": "function"
    },
    {
      "anonymous": false,
      "inputs": [
        {
          "indexed": false,
          "name": "id",
          "type": "uint256"
        },
        {
          "indexed": false,
          "name": "name",
          "type": "string"
        },
        {
          "indexed": true,
          "name": "_sport",
          "type": "string"
        },
        {
          "indexed": true,
          "name": "_owner",
          "type": "address"
        }
      ],
      "name": "NewProduct",
      "type": "event"
    },
    {
      "constant": false,
      "inputs": [
        {
          "name": "_id",
          "type": "uint256"
        },
        {
          "name": "_name",
          "type": "string"
        },
        {
          "name": "_sport",
          "type": "string"
        }
      ],
      "name": "_registerProduct",
      "outputs": [
        {
          "name": "",
          "type": "uint256"
        }
      ],
      "payable": false,
      "stateMutability": "nonpayable",
      "type": "function"
    },
    {
      "constant": true,
      "inputs": [],
      "name": "getOwners",
      "outputs": [
        {
          "name": "",
          "type": "address[20]"
        }
      ],
      "payable": false,
      "stateMutability": "view",
      "type": "function"
    }
  ],
  "bytecode": "0x608060405234801561001057600080fd5b50610866806100206000396000f3fe608060405234801561001057600080fd5b5060043610610069576000357c0100000000000000000000000000000000000000000000000000000000900480637acc0b201461006e578063922d5fb9146101bb578063992924a61461032b578063a0e67e2b14610399575b600080fd5b61009a6004803603602081101561008457600080fd5b81019080803590602001909291905050506103df565b6040518085815260200180602001806020018473ffffffffffffffffffffffffffffffffffffffff1673ffffffffffffffffffffffffffffffffffffffff168152602001838103835286818151815260200191508051906020019080838360005b838110156101165780820151818401526020810190506100fb565b50505050905090810190601f1680156101435780820380516001836020036101000a031916815260200191505b50838103825285818151815260200191508051906020019080838360005b8381101561017c578082015181840152602081019050610161565b50505050905090810190601f1680156101a95780820380516001836020036101000a031916815260200191505b50965050505050505060405180910390f35b610315600480360360608110156101d157600080fd5b8101908080359060200190929190803590602001906401000000008111156101f857600080fd5b82018360208201111561020a57600080fd5b8035906020019184600183028401116401000000008311171561022c57600080fd5b91908080601f016020809104026020016040519081016040528093929190818152602001838380828437600081840152601f19601f8201169050808301925050505050505091929192908035906020019064010000000081111561028f57600080fd5b8201836020820111156102a157600080fd5b803590602001918460018302840111640100000000831117156102c357600080fd5b91908080601f016020809104026020016040519081016040528093929190818152602001838380828437600081840152601f19601f82011690508083019250505050505050919291929050505061056e565b6040518082815260200191505060405180910390f35b6103576004803603602081101561034157600080fd5b81019080803590602001909291905050506106bb565b604051808273ffffffffffffffffffffffffffffffffffffffff1673ffffffffffffffffffffffffffffffffffffffff16815260200191505060405180910390f35b6103a16106f0565b6040518082601460200280838360005b838110156103cc5780820151818401526020810190506103b1565b5050505090500191505060405180910390f35b6000818154811015156103ee57fe5b9060005260206000209060040201600091509050806000015490806001018054600181600116156101000203166002900480601f0160208091040260200160405190810160405280929190818152602001828054600181600116156101000203166002900480156104a05780601f10610475576101008083540402835291602001916104a0565b820191906000526020600020905b81548152906001019060200180831161048357829003601f168201915b505050505090806002018054600181600116156101000203166002900480601f01602080910402602001604051908101604052809291908181526020018280546001816001161561010002031660029004801561053e5780601f106105135761010080835404028352916020019161053e565b820191906000526020600020905b81548152906001019060200180831161052157829003601f168201915b5050505050908060030160009054906101000a900473ffffffffffffffffffffffffffffffffffffffff16905084565b6000806080604051908101604052808681526020018581526020018481526020013373ffffffffffffffffffffffffffffffffffffffff16815250908060018154018082558091505090600182039060005260206000209060040201600090919290919091506000820151816000015560208201518160010190805190602001906105fa929190610771565b506040820151816002019080519060200190610617929190610771565b5060608201518160030160006101000a81548173ffffffffffffffffffffffffffffffffffffffff021916908373ffffffffffffffffffffffffffffffffffffffff1602179055505050503360018560148110151561067257fe5b0160006101000a81548173ffffffffffffffffffffffffffffffffffffffff021916908373ffffffffffffffffffffffffffffffffffffffff1602179055508390509392505050565b6001816014811015156106ca57fe5b016000915054906101000a900473ffffffffffffffffffffffffffffffffffffffff1681565b6106f86107f1565b6001601480602002604051908101604052809291908260148015610767576020028201915b8160009054906101000a900473ffffffffffffffffffffffffffffffffffffffff1673ffffffffffffffffffffffffffffffffffffffff168152602001906001019080831161071d575b5050505050905090565b828054600181600116156101000203166002900490600052602060002090601f016020900481019282601f106107b257805160ff19168380011785556107e0565b828001600101855582156107e0579182015b828111156107df5782518255916020019190600101906107c4565b5b5090506107ed9190610815565b5090565b61028060405190810160405280601490602082028038833980820191505090505090565b61083791905b8082111561083357600081600090555060010161081b565b5090565b9056fea165627a7a723058206054211145f5c0b3a49da442d58cd34aedc86717948382a0bd670057aca04bd40029",
  "source": " pragma solidity ^0.5.0;\n\ncontract Kibiwoo {\n\n\tevent NewProduct(uint id, string name, string indexed _sport, address indexed _owner);\n\n\tstruct Product {\n\t\tuint id;\n\t\tstring name;\n\t\tstring sport;\n\t\taddress owner;\n\t}\n\n\tProduct[] public products;\n\n\taddress[20] public _owners;\n\t// struct User {\n\t// \taddress user_address;\n\t// \tstring email;\n\t// \tstring name;\n\t// }\n\n\t// User[] private _owners;\n\n\tfunction _registerProduct(uint _id, string memory _name, string memory _sport) public returns (uint) {\n\t\tproducts.push(Product(_id, _name, _sport, msg.sender));\n\t\t_owners[_id] = msg.sender;\n\t\t// emit NewProduct(_id, _name, _sport, msg.sender);\n\n\t\treturn _id;\n\t}\n\n\t// function _createUser(address _user_address, string _email, string _name) private {\n\t// \tusers.push(User(_user_address, _email, _name))\n\t// }\n\n\tfunction getOwners() public view returns (address[20] memory) {\n\t\treturn _owners;\n\t}\n\n}",
  "sourcePath": "/home/agericke/Documentos/kibiwoo_blockchain/contracts/Kibiwoo.sol",
  "compiler": {
    "name": "solc",
    "version": "0.5.2+commit.1df8f40c.Emscripten.clang"
  },
  "schemaVersion": "3.0.6",
  "updatedAt": "2019-05-23T21:59:57.350Z",
  "devdoc": {
    "methods": {}
  },
  "userdoc": {
    "methods": {}
  }
}