{
  "contractName": "KibiwooRegisterProducts",
  "abi": [
    {
      "constant": true,
      "inputs": [
        {
          "name": "",
          "type": "address"
        }
      ],
      "name": "storeProductCount",
      "outputs": [
        {
          "name": "",
          "type": "uint256"
        }
      ],
      "payable": false,
      "stateMutability": "view",
      "type": "function",
      "signature": "0x13149d63"
    },
    {
      "constant": false,
      "inputs": [],
      "name": "renounceOwnership",
      "outputs": [],
      "payable": false,
      "stateMutability": "nonpayable",
      "type": "function",
      "signature": "0x715018a6"
    },
    {
      "constant": true,
      "inputs": [
        {
          "name": "",
          "type": "uint256"
        }
      ],
      "name": "products",
      "outputs": [
        {
          "name": "name",
          "type": "string"
        },
        {
          "name": "sku",
          "type": "uint256"
        },
        {
          "name": "isComplement",
          "type": "bool"
        },
        {
          "name": "category",
          "type": "uint8"
        }
      ],
      "payable": false,
      "stateMutability": "view",
      "type": "function",
      "signature": "0x7acc0b20"
    },
    {
      "constant": true,
      "inputs": [],
      "name": "owner",
      "outputs": [
        {
          "name": "",
          "type": "address"
        }
      ],
      "payable": false,
      "stateMutability": "view",
      "type": "function",
      "signature": "0x8da5cb5b"
    },
    {
      "constant": true,
      "inputs": [],
      "name": "isOwner",
      "outputs": [
        {
          "name": "",
          "type": "bool"
        }
      ],
      "payable": false,
      "stateMutability": "view",
      "type": "function",
      "signature": "0x8f32d59b"
    },
    {
      "constant": true,
      "inputs": [
        {
          "name": "",
          "type": "uint256"
        }
      ],
      "name": "productToStore",
      "outputs": [
        {
          "name": "",
          "type": "address"
        }
      ],
      "payable": false,
      "stateMutability": "view",
      "type": "function",
      "signature": "0xb32f7b8b"
    },
    {
      "constant": false,
      "inputs": [
        {
          "name": "newOwner",
          "type": "address"
        }
      ],
      "name": "transferOwnership",
      "outputs": [],
      "payable": false,
      "stateMutability": "nonpayable",
      "type": "function",
      "signature": "0xf2fde38b"
    },
    {
      "anonymous": false,
      "inputs": [
        {
          "indexed": false,
          "name": "id",
          "type": "uint256"
        },
        {
          "indexed": false,
          "name": "name",
          "type": "string"
        },
        {
          "indexed": false,
          "name": "sku",
          "type": "uint256"
        },
        {
          "indexed": false,
          "name": "category",
          "type": "uint8"
        }
      ],
      "name": "NewProduct",
      "type": "event",
      "signature": "0x436a659faa1fb9e5e1200c39a7bbd18817744c3c67acc8769dd528b9399b4e0d"
    },
    {
      "anonymous": false,
      "inputs": [
        {
          "indexed": true,
          "name": "previousOwner",
          "type": "address"
        },
        {
          "indexed": true,
          "name": "newOwner",
          "type": "address"
        }
      ],
      "name": "OwnershipTransferred",
      "type": "event",
      "signature": "0x8be0079c531659141344cd1fd0a4f28419497f9722a3daafe3b4186f6b6457e0"
    },
    {
      "constant": false,
      "inputs": [
        {
          "name": "_name",
          "type": "string"
        },
        {
          "name": "_category",
          "type": "uint8"
        }
      ],
      "name": "createNewProduct",
      "outputs": [],
      "payable": false,
      "stateMutability": "nonpayable",
      "type": "function",
      "signature": "0xfae4e1fc"
    }
  ],
  "bytecode": "0x60806040526024600155600154600a0a600255336000806101000a81548173ffffffffffffffffffffffffffffffffffffffff021916908373ffffffffffffffffffffffffffffffffffffffff1602179055506000809054906101000a900473ffffffffffffffffffffffffffffffffffffffff1673ffffffffffffffffffffffffffffffffffffffff16600073ffffffffffffffffffffffffffffffffffffffff167f8be0079c531659141344cd1fd0a4f28419497f9722a3daafe3b4186f6b6457e060405160405180910390a3610b56806100dd6000396000f3fe608060405234801561001057600080fd5b50600436106100a5576000357c0100000000000000000000000000000000000000000000000000000000900480638f32d59b116100785780638f32d59b14610224578063b32f7b8b14610246578063f2fde38b146102b4578063fae4e1fc146102f8576100a5565b806313149d63146100aa578063715018a6146101025780637acc0b201461010c5780638da5cb5b146101da575b600080fd5b6100ec600480360360208110156100c057600080fd5b81019080803573ffffffffffffffffffffffffffffffffffffffff1690602001909291905050506103c0565b6040518082815260200191505060405180910390f35b61010a6103d8565b005b6101386004803603602081101561012257600080fd5b81019080803590602001909291905050506104aa565b60405180806020018581526020018415151515815260200183600281111561015c57fe5b60ff168152602001828103825286818151815260200191508051906020019080838360005b8381101561019c578082015181840152602081019050610181565b50505050905090810190601f1680156101c95780820380516001836020036101000a031916815260200191505b509550505050505060405180910390f35b6101e261059b565b604051808273ffffffffffffffffffffffffffffffffffffffff1673ffffffffffffffffffffffffffffffffffffffff16815260200191505060405180910390f35b61022c6105c4565b604051808215151515815260200191505060405180910390f35b6102726004803603602081101561025c57600080fd5b810190808035906020019092919050505061061b565b604051808273ffffffffffffffffffffffffffffffffffffffff1673ffffffffffffffffffffffffffffffffffffffff16815260200191505060405180910390f35b6102f6600480360360208110156102ca57600080fd5b81019080803573ffffffffffffffffffffffffffffffffffffffff16906020019092919050505061064e565b005b6103be6004803603604081101561030e57600080fd5b810190808035906020019064010000000081111561032b57600080fd5b82018360208201111561033d57600080fd5b8035906020019184600183028401116401000000008311171561035f57600080fd5b91908080601f016020809104026020016040519081016040528093929190818152602001838380828437600081840152601f19601f820116905080830192505050505050509192919290803560ff16906020019092919050505061066d565b005b60056020528060005260406000206000915090505481565b6103e06105c4565b15156103eb57600080fd5b600073ffffffffffffffffffffffffffffffffffffffff166000809054906101000a900473ffffffffffffffffffffffffffffffffffffffff1673ffffffffffffffffffffffffffffffffffffffff167f8be0079c531659141344cd1fd0a4f28419497f9722a3daafe3b4186f6b6457e060405160405180910390a360008060006101000a81548173ffffffffffffffffffffffffffffffffffffffff021916908373ffffffffffffffffffffffffffffffffffffffff160217905550565b6003818154811015156104b957fe5b9060005260206000209060030201600091509050806000018054600181600116156101000203166002900480601f0160208091040260200160405190810160405280929190818152602001828054600181600116156101000203166002900480156105655780601f1061053a57610100808354040283529160200191610565565b820191906000526020600020905b81548152906001019060200180831161054857829003601f168201915b5050505050908060010154908060020160009054906101000a900460ff16908060020160019054906101000a900460ff16905084565b60008060009054906101000a900473ffffffffffffffffffffffffffffffffffffffff16905090565b60008060009054906101000a900473ffffffffffffffffffffffffffffffffffffffff1673ffffffffffffffffffffffffffffffffffffffff163373ffffffffffffffffffffffffffffffffffffffff1614905090565b60046020528060005260406000206000915054906101000a900473ffffffffffffffffffffffffffffffffffffffff1681565b6106566105c4565b151561066157600080fd5b61066a8161068d565b50565b600061067883610787565b9050610687838260008561081a565b50505050565b600073ffffffffffffffffffffffffffffffffffffffff168173ffffffffffffffffffffffffffffffffffffffff16141515156106c957600080fd5b8073ffffffffffffffffffffffffffffffffffffffff166000809054906101000a900473ffffffffffffffffffffffffffffffffffffffff1673ffffffffffffffffffffffffffffffffffffffff167f8be0079c531659141344cd1fd0a4f28419497f9722a3daafe3b4186f6b6457e060405160405180910390a3806000806101000a81548173ffffffffffffffffffffffffffffffffffffffff021916908373ffffffffffffffffffffffffffffffffffffffff16021790555050565b600080826040516020018082805190602001908083835b6020831015156107c3578051825260208201915060208101905060208303925061079e565b6001836020036101000a038019825116818451168082178552505050505050905001915050604051602081830303815290604052805190602001206001900490506002548181151561081157fe5b06915050919050565b60008060016003608060405190810160405280898152602001888152602001871515815260200186600281111561084d57fe5b815250908060018154018082558091505090600182039060005260206000209060030201600090919290919091506000820151816000019080519060200190610897929190610a85565b506020820151816001015560408201518160020160006101000a81548160ff02191690831515021790555060608201518160020160016101000a81548160ff021916908360028111156108e657fe5b02179055505050039050336004600083815260200190815260200160002060006101000a81548173ffffffffffffffffffffffffffffffffffffffff021916908373ffffffffffffffffffffffffffffffffffffffff1602179055506109956001600560003373ffffffffffffffffffffffffffffffffffffffff1673ffffffffffffffffffffffffffffffffffffffff16815260200190815260200160002054610a6490919063ffffffff16565b507f436a659faa1fb9e5e1200c39a7bbd18817744c3c67acc8769dd528b9399b4e0d8187878660405180858152602001806020018481526020018360028111156109db57fe5b60ff168152602001828103825285818151815260200191508051906020019080838360005b83811015610a1b578082015181840152602081019050610a00565b50505050905090810190601f168015610a485780820380516001836020036101000a031916815260200191505b509550505050505060405180910390a180915050949350505050565b6000808284019050838110151515610a7b57600080fd5b8091505092915050565b828054600181600116156101000203166002900490600052602060002090601f016020900481019282601f10610ac657805160ff1916838001178555610af4565b82800160010185558215610af4579182015b82811115610af3578251825591602001919060010190610ad8565b5b509050610b019190610b05565b5090565b610b2791905b80821115610b23576000816000905550600101610b0b565b5090565b9056fea165627a7a723058201cc64b43c87c6ee73fefad5da7490d6693b7302e79d40d5ef7df8ec3cea4fd9d0029",
  "source": "pragma solidity ^0.5.0;\n\nimport 'openzeppelin-solidity/contracts/ownership/Ownable.sol';\nimport 'openzeppelin-solidity/contracts/math/SafeMath.sol';\n\n/// @title A contract for managing Kibiwoo's products registration.\n/// @author Álvaro Gericke\n\ncontract KibiwooRegisterProducts is Ownable {\n\n\tusing SafeMath for uint256;\n\n\tevent NewProduct(uint id, string name, uint sku, Categories category);\n\n\t\n\t/// The number of digits that the identifier of the product will have.\n\t/// \tThe first 16 digits correspond to the shop identifier.\n\t///\t\tThe last 20 digits correspond to the product identifier.\n\tuint productIdDigits = 36;\n\tuint productIdModulus = 10 ** productIdDigits;\n\n\tenum Categories { Surf, Cycling, Ski }\n\n\tCategories constant defaultCategory = Categories.Surf;\n\n\t/// @notice Special structure for defining a product\n\t/// @param name - The name of the product set by the owner o the product\n\t/// @param sku - The productId that identifies uniquely each product\n\tstruct Product {\n\t\tstring name;\n\t\tuint sku;\n\t\tbool isComplement;\n\t\tCategories category;\n\t}\n\n\t/// Dynamic array to store all the products\n\tProduct[] public products;\n\n\t/// Mapping from product to owner store (Ethereum Address).\n\tmapping (uint => address)  public productToStore;\n\t/// Mapping from store (Ethereum Address) to product count.\n\tmapping (address => uint)  public storeProductCount;\n\n\t// address[20] public _owners;\n\t// struct User {\n\t// \taddress user_address;\n\t// \tstring email;\n\t// \tstring name;\n\t// }\n\n\t// User[] private _owners;\n\n\t/// @notice Creates a new product with id the consecutive one and name specified by caller.\n    /// @dev If no name is assigned, it will be assigned an empty string.\n    // @param _id The unique identifier of the product to be created.\n    /// @param _name String identifying the  name of the product.\n    /// @param _sku The 36 digits identifier of the product to be created.\n    /// @param _isComplement Boolean that indicates if this product is a complement from another product\n    /// @return The number of NFTs owned by `_owner`, possibly zero\n\tfunction _registerProduct(string memory _name, uint _sku, bool _isComplement, Categories _category) internal returns (uint) {\n\t\t//_owners[_id] = msg.sender;\n\t\tuint id = products.push(Product(_name, _sku, _isComplement, _category)) - 1;\n\t\tproductToStore[id] = msg.sender;\n\t\tstoreProductCount[msg.sender].add(1);\n\t\temit NewProduct(id, _name, _sku, _category);\n\t\treturn id;\n\t}\n\n\tfunction _generateRandomSku (string memory _name) internal view returns (uint) {\n\t\tuint rand = uint(keccak256(abi.encodePacked(_name)));\n\t\treturn rand % productIdModulus;\n\t}\n\n\tfunction createNewProduct(string memory _name, Categories _category) public {\n\t\tuint randSku = _generateRandomSku(_name);\n\t\t_registerProduct(_name, randSku, false, _category);\n\t}\n\t// function _createUser(address _user_address, string _email, string _name) private {\n\t// \tusers.push(User(_user_address, _email, _name))\n\t// }\n}",
  "sourcePath": "/home/agericke/Documentos/kibiwoo_blockchain/contracts/kibiwooregisterproducts.sol",
  "compiler": {
    "name": "solc",
    "version": "0.5.2+commit.1df8f40c.Emscripten.clang"
  },
  "schemaVersion": "3.0.6",
  "updatedAt": "2019-04-10T01:43:44.865Z",
  "devdoc": {
    "author": "Álvaro Gericke",
    "methods": {
      "isOwner()": {
        "return": "true if `msg.sender` is the owner of the contract."
      },
      "owner()": {
        "return": "the address of the owner."
      },
      "renounceOwnership()": {
        "details": "Allows the current owner to relinquish control of the contract. It will not be possible to call the functions with the `onlyOwner` modifier anymore."
      },
      "transferOwnership(address)": {
        "details": "Allows the current owner to transfer control of the contract to a newOwner.",
        "params": {
          "newOwner": "The address to transfer ownership to."
        }
      }
    },
    "title": "A contract for managing Kibiwoo's products registration."
  },
  "userdoc": {
    "methods": {
      "renounceOwnership()": {
        "notice": "Renouncing ownership will leave the contract without an owner, thereby removing any functionality that is only available to the owner."
      }
    }
  }
}